:0807E8005EF40000119011F015
:1007F000119012F0119013F0119014F0119015F067
:10080000119016F0119017F0119018F0119019F046
:1008100011901AF011901BF011901CF011901DF026
:1008200011901EF011901FF000E445F046F07E029A
:10083000040309A23EE681E41F740055F6C51EF4C8
:020840001FFE99
:02045E0008EDA7
:020460001FFE7D
:04045A00F7EB1FFE9F
:0E03D2006EF8008825FA1F7003C17FE02EF838
:1003E0001FFE25F206C98080000106F009AA3EE63C
:1003F00007CE8080000106F07E02040309A23EE6DB
:0404000000E0EDCE5D
:020006000FFEEB
:02047E001FFE5F
:0A079000000106F008A03EE602F0AA
:0A0AF600CEFF6EF0109000F04EF0FD
:100B0000000001F090070EF0119000F02EF08EFF23
:0E0A8200CEF96EF0109000F04EF0010001F081
:0E0A900090070EF0119000F02EF08EF90FFE80
:06028A00CEF96EF01090A9
:1002900000F04EF0020001F090070EF0119000F017
:0602A0002EF08EF90FFEA6
:0A02A600CEF96EF0109000F04EF05B
:1002B000030001F090070EF0119000F02EF08EF97F
:0202C0000FFE2F
:060A4A00CEF96EF01090E1
:100A500000F04EF0040001F090070EF0119000F04D
:060A60002EF08EF90FFEDE
:06015A00CEF96EF01090DA
:1001600000F04EF0050001F090070EF0119000F045
:060170002EF08EF90FFED7
:0A017600CEF96EF0109000F04EF08C
:10018000060001F090070EF0119000F02EF08EF9AD
:020190000FFE60
:0E0A1200CEF96EF0109000F04EF0070001F0EB
:0E0A200090070EF0119000F02EF08EF90FFEF0
:020A2E00CEF9FF
:100A30006EF0109000F04EF0080001F090070EF0FC
:0A0A4000119000F02EF08EF90FFE69
:0C0B6400CEF96EF0109000F04EF0090089
:100B700001F090070EF0119000F02EF08EF90FFEAC
:020ABE00CEF96F
:100AC0006EF0109000F04EF00A0001F090070EF06A
:0A0AD000119000F02EF08EF90FFED9
:080B4800CEF96EF0109000F0F0
:100B50004EF00B0001F090070EF0119000F02EF017
:040B60008EF90FFEFD
:020C3E00CEF9ED
:100C40006EF0109000F04EF00C0001F090070EF0E6
:0A0C5000119000F02EF08EF90FFE57
:0C031400CEF96EF0109000F04EF00D00DD
:1003200001F090070EF0119000F02EF08EF90FFE04
:10033000CEF96EF0109000F04EF00E0001F0900734
:0C0340000EF0119000F02EF08EF90FFE70
:0A038600CEF96EF0109000F04EF07A
:100390000F0001F090070EF0119000F02EF08EF992
:0203A0000FFE4E
:0E03A200CEF96EF0109000F04EF0100001F059
:0E03B00090070EF0119000F02EF08EF90FFE67
:0A02E600CEF96EF0109000F04EF01B
:1002F000110001F090070EF0119000F02EF08EF931
:020300000FFEEE
:0E02C200CEF96EF0109000F04EF0120001F038
:0E02D00090070EF0119000F02EF08EF90FFE48
:04034C00CEF96EF088
:10035000109000F04EF0130001F090070EF0119095
:0803600000F02EF08EF90FFEF3
:100B1000CEF96EF0109000F04EF0140001F0900746
:0C0B20000EF0119000F02EF08EF90FFE88
:06036A00CEF96EF01090C8
:1003700000F04EF0150001F090070EF0119000F023
:060380002EF08EF90FFEC5
:040B2C00CEF96EF0A0
:100B3000109000F04EF0160001F090070EF01190AA
:080B400000F02EF08EF90FFE0B
:0C075400CEF96EF0109000F04EF017008F
:1007600001F090070EF0119000F02EF08EF90FFEC0
:0C06B400CEF96EF0109000F04EF018002F
:1006C00001F090070EF0119000F02EF08EF90FFE61
:1006D000CEF96EF0109000F04EF0190001F0900786
:0C06E0000EF0119000F02EF08EF90FFECD
:0406EC00CEF96EF0E5
:1006F000109000F04EF01A0001F090070EF01190EB
:0807000000F02EF08EF90FFE4F
:060ADA00CEF96EF0109051
:100AE00000F04EF01B0001F090070EF0119000F0A6
:060AF0002EF08EF90FFE4E
:0A0A6600CEF96EF0109000F04EF093
:100A70001C0001F090070EF0119000F02EF08EF99E
:020A80000FFE67
:02013E00CEF9F8
:100140006EF0109000F04EF01D0001F090070EF0E0
:0A015000119000F02EF08EF90FFE62
:0E046200CEF96EF0109000F04EF01E0001F08A
:0E04700090070EF0119000F02EF08EF90FFEA6
:02000800F60AF6
:04000C00820A06005E
:100010008A02A6024A0A06005A017601120A2E0A2C
:10002000640B0600BE0A060006000600480B3E0CE4
:100030000600060014033003060006000600060052
:100040008603A2030600060006000600E602C202BE
:1000500006000600060006004C03100B6A032C0B7A
:100060005407B406D006EC060600DA0A0600660A53
:080070003E01060006006204D7
:06079A0001F0C20801F0AD
:1007A000BE0300000A015EF016E21400E70101F04A
:1007B000040402E101F0BE0300E013909EE61390F2
:1007C000A0E601F0BE0312909EE61292A0E681E040
:1007D0000062006313909EE61392A0E6FA70005147
:0807E00000520053EEC5DBCE10
:0203BE005A00E3
:1003C00011900EF081A00EF0FAC9A50011900EF068
:0203D0001FFE0E
:020368001FFE76
:0E08C200CEF880A02AF0A2A02AF0B0A02AF062
:1008D000E0A02AF0F0A02AF0000011902CF0119076
:1008E0002EF011902FF001F0080701F0F00501F053
:1008F0005E0801F09E0A00001190E0F81190E1F806
:1009000092A0E1F880A0E1F8D2A0E2F8F2A0E2F82B
:1009100082A0E3F801F05A0401F0E807000011900A
:1009200017F0119016F0119015F0119014F011902D
:1009300013F0119012F0119011F0119010F011902D
:100940001FF011901EF011901DF011901CF01190ED
:100950001BF011901AF0119019F0119018F0B2A03C
:1009600017F0020203030F0001F0D20380A014F07D
:1009700001F05E04030011900FF001F0BE030D00C2
:100980001190B8E60A001190B9E60D001190D7E673
:100990000A001190D8E60D001190E5E60A001190CA
:1009A000E6E60D001190FCE60A001190FDE60D0050
:1009B000119012E70A00119013E70A0001015EF09E
:1009C00040021F03020001F0800402E101F0140163
:1009D00000001190FFE701F0420800000A015EF0FC
:1009E0000EE2AC00E60101F0040402E104CE01F0E5
:1009F000680301F0BE031090FFE70170F8C88EF2A3
:100A0000CEF801F0920101001190FFE701F0DE0243
:020A10008EF264
:0202DE0001001D
:0602E00011909DE61FFED7
:0403020000F0920174
:020A9E0082A034
:100AA00002F092A002F0B0A002F0A2A002F090A08A
:0E0AB00003F080A003F0F0A003F008ED1FFE9D
:0807080082A051F292A051F20F
:10071000A2A051F280A053F280A052F290A053F216
:1007200090A052F2A0A053F2A0A052F282A055F2E3
:1007300082A054F292A055F292A054F2A2A055F2D7
:10074000A2A054F282A050F292A050F2A2A050F2C5
:0407500000F0BE03F4
:1005F00082A059F292A059F2A2A059F2B2A059F2E7
:10060000C2A059F2D2A059F2E2A059F2F2A059F2D6
:1006100080A05BF280A05AF290A05BF290A05AF208
:10062000A0A05BF2A0A05AF2B0A05BF2B0A05AF278
:10063000C0A05BF2C0A05AF2D0A05BF2D0A05AF2E8
:10064000E0A05BF2E0A05AF2F0A05BF2F0A05AF258
:1006500082A05DF282A05CF292A05DF292A05CF2B8
:10066000A2A05DF2A2A05CF2B2A05DF2B2A05CF228
:10067000C2A05DF2C2A05CF2D2A05DF2D2A05CF298
:10068000E2A05DF2E2A05CF2F2A05DF2F2A05CF208
:1006900082A058F292A058F2A2A058F2B2A058F24A
:1006A000C2A058F2D2A058F2E2A058F2F2A058F23A
:0406B00000F0BE0395
:02085E0082A076
:1008600061F292A061F2A2A061F2B2A061F280A056
:1008700063F280A062F290A063F290A062F2A0A066
:1008800063F2A0A062F2B0A063F2B0A062F282A014
:1008900065F282A064F292A065F292A064F2A2A036
:1008A00065F2A2A064F2B2A065F2B2A064F282A0E6
:1008B00060F292A060F2A2A060F2B2A060F200F03A
:0208C000BE0375
:02000200800B71
:0800780048656C6C6F20576FA6
:10008000726C6421202050494E4721202020494E87
:10009000505F30303030303030305F3030303030E2
:1000A0003030300000494E502052656365697665F6
:1000B0006400004F5554205265636569766564207D
:1000C000202020202020202000004D4C36313051AF
:1000D00031313120436F6E6E6563746564210000B9
:1000E0004142434445464731323334353637383957
:0600F0003078797A0A0D58
:06010A0000D00700000216
:0401100000000000EB
:020000003AE6DE
:02000400820B6D
:100B800001CEFFCE00E000E200E400E60008E0094C
:100B90008AF0579088E8E879FCC10078FAC15A0CCD
:100BA000A50D119C0EF081A00EF0FBC9119D0EF059
:100BB000000A0CF00001AF905290FF7002C8FF7164
:100BC00020C9AF905292AF905294AF905096AF9090
:100BD000509780E4F0C901A20BC801A409C86F9026
:100BE000029882E07F90239882E2FEE4F8C8E3CE88
:100BF0006F90009881E07F90219881E2FFE4F8C82F
:100C0000DACE01F00A000000119000F000F09A071F
:02000A001FFED7
:080100007800ACE68800000065
:02010800FFFFF7
:105FE000FFFFFFFFFFFFFFFFFFFFFFFFFFFFFFFFC1
:105FF000FFFFFFFFFFFFFFFFFFFFFFFFFFFFFFFFB1
:10048000CEF85EFE1AAE5EFC5EF85EF40088007088
:100490000FC9017002C800F0A605027002C800F082
:1004A000AE057FE01EF41EF81EFCEAA11EFE8EF2D1
:1004B0000000800100E244BC6EF0C29002B26EF017
:1004C00001F0700704E12EF000700051005200535B
:1004D00002C87EE0E7CEFFE005F404D0037002C35B
:1004E0007DE0E0CE05D0027002C37CE0DBCE06D01A
:1004F000017002C37BE0D6CE07D0017002C37AE060
:10050000D1CE08D0017002C379E0CCCE00E01390C8
:100510002AE713902CE713902EE7139030E7119001
:1005200032E782A091F201F0C605109092F20089A4
:10053000F920008980801A9090810381108010300A
:10054000119092F2C2A092F2109093F20089802052
:10055000008944BC05D02A9004D1038106D04A907A
:10056000138007D15A91038108D06A90138090813B
:100570000381119193F2119494F2109095F20089F5
:10058000F020008950800F2090810381119195F215
:1005900082A096F292A096F2A2A096F2B2A096F253
:1005A00000E000F0A40400E001E200F0B60425F051
:1005B00000E27B937B927B917A903B933B923B91C1
:0605C0003A9000F0B604C1
:0C0404005EFE1AAE5EF805F882A091F2D0
:1004100082A092F213902AE713922CE700E0139047
:100420002EE742B0139030E70000119032E70072DF
:1004300000530FC38090119090F212902AE781E050
:1004400013902AE712902EE781E013902EE780A008
:0A04500091F21EF8EAA11EFE1FFE45
:0E019200CEF85EFC109092F20120007034C88E
:1001A00012902CE712922EE727F019C9109096F2C0
:1001B0000820007012C8129C2AE7C090119090F29B
:1001C000C5F081E013902AE725F081E013902EE737
:1001D00080A091F200E01EFC8EF27FE0FCCE109039
:1001E00091F2012000700EC8129030E709C905FC99
:1001F00000E0139030E7109232E712902CE7C3F042
:1002000001E0E9CE7EE0E7CE12902CE712922EE7D5
:1002100027F02CC9109096F207200082109032E748
:100220002380119032E782A096F292A096F2A2A0CB
:1002300096F2129C2AE7109090F2C19012902AE751
:1002400081E013902AE712902EE781E013902EE7C9
:1002500001A209C812902CE712922EE727F006C9D6
:1002600000E000F0D601010001F00603129030E733
:1002700009C905FC00E0139030E7109232E71290B4
:0A0280002CE7C3F001E000F0D60106
:0E08420082A091F200E013902AE713902CE7B9
:0E08500013902EE7139030E7119032E71FFE51
:0A030600008210903AE62380119067
:040310003AE61FFEAC
:0C01140092A059F290A05AF290A05BF269
:1001200092A05CF290A05DF280A059F280A05AF2F9
:0E01300082A05BF282A05CF282A05DF21FFE54
:0A05C60092A059F292A05AF292A0FE
:1005D0005BF292A05CF292A05DF282A059F282A03E
:1005E0005AF282A05BF282A05CF282A05DF21FFE52
:0A00F6000000000000000000000000
:10077000CEF97EF06EF85EFC1AACCBF01200549805
:10078000349001F0100C35901EFC2EF83EF08EF3E4
:100C1000200D00E400E61B971B961B951B941B936D
:100C20001B921B911A9087F4A586B58705C188840D
:0E0C30009985A986B98700A0FF1DEDC81FFE9B
:00000001FF
