:02094E005EF455
:100950000000119011F0119012F0119013F011900D
:1009600014F0119015F0119016F0119017F01190ED
:1009700018F0119019F011901AF011901BF01190CD
:100980001CF011901DF011901EF011901FF000E46A
:1009900045F046F0CC02040309A254EE81E41F7432
:0809A0000055F6C51EF41FFE10
:0404AC0008ED1FFE3A
:0404A800F7EB1FFE51
:100420006EF8008825FA1F7003C17FE02EF81FFECA
:1004300025F206C98080000106F009AA54EE07CE15
:100440008080000106F0CC02040309A254EE00E013
:02045000EDCEEF
:020006000FFEEB
:0204CC001FFE11
:0A084400000106F008A054EE02F0D7
:100CC000CEFF6EF0109000F04EF0000001F04408EE
:0A0CD0000EF0119000F02EF08EFFE0
:040C4C00CEF96EF07F
:100C5000109000F04EF0010001F044080EF01190E9
:080C600000F02EF08EF90FFEEA
:0C027400CEF96EF0109000F04EF0020089
:1002800001F044080EF0119000F02EF08EF90FFEF0
:10029000CEF96EF0109000F04EF0030001F044082B
:0C02A0000EF0119000F02EF08EF90FFE11
:0C0C1400CEF96EF0109000F04EF00400DD
:100C200001F044080EF0119000F02EF08EF90FFE46
:0C014400CEF96EF0109000F04EF00500B7
:1001500001F044080EF0119000F02EF08EF90FFE21
:10016000CEF96EF0109000F04EF0060001F0440859
:0C0170000EF0119000F02EF08EF90FFE42
:040BDC00CEF96EF0F0
:100BE000109000F04EF0070001F044080EF0119054
:080BF00000F02EF08EF90FFE5B
:080BF800CEF96EF0109000F040
:100C00004EF0080001F044080EF0119000F02EF0B4
:040C10008EF90FFE4C
:020D2E00CEF9FC
:100D30006EF0109000F04EF0090001F044080EF043
:0A0D4000119000F02EF08EF90FFE66
:080C8800CEF96EF0109000F0AF
:100C90004EF00A0001F044080EF0119000F02EF022
:040CA0008EF90FFEBC
:0E0D1200CEF96EF0109000F04EF00B0001F0E4
:0E0D200044080EF0119000F02EF08EF90FFE38
:080D7800CEF96EF0109000F0BE
:100D80004EF00C0001F044080EF0119000F02EF02F
:040D90008EF90FFECB
:0202FE00CEF937
:100300006EF0109000F04EF00D0001F044080EF079
:0A031000119000F02EF08EF90FFEA0
:06031A00CEF96EF0109018
:1003200000F04EF00E0001F044080EF0119000F0C5
:060330002EF08EF90FFE15
:0C03D400CEF96EF0109000F04EF00F001B
:1003E00001F044080EF0119000F02EF08EF90FFE8F
:1003F000CEF96EF0109000F04EF0100001F04408BD
:0C0400000EF0119000F02EF08EF90FFEAF
:1002D000CEF96EF0109000F04EF0110001F04408DD
:0C02E0000EF0119000F02EF08EF90FFED1
:0402AC00CEF96EF029
:1002B000109000F04EF0120001F044080EF0119082
:0802C00000F02EF08EF90FFE94
:0A033600CEF96EF0109000F04EF0CA
:10034000130001F044080EF0119000F02EF08EF929
:020350000FFE9E
:060CDA00CEF96EF010904F
:100CE00000F04EF0140001F044080EF0119000F0F6
:060CF0002EF08EF90FFE4C
:0C035400CEF96EF0109000F04EF0150095
:1003600001F044080EF0119000F02EF08EF90FFE0F
:0A0CF600CEF96EF0109000F04EF001
:100D0000160001F044080EF0119000F02EF08EF95C
:020D10000FFED4
:08080800CEF96EF0109000F033
:100810004EF0170001F044080EF0119000F02EF099
:040820008EF90FFE40
:0E070200CEF96EF0109000F04EF0180001F0ED
:0E07100044080EF0119000F02EF08EF90FFE4E
:02071E00CEF912
:100720006EF0109000F04EF0190001F044080EF049
:0A073000119000F02EF08EF90FFE7C
:06073A00CEF96EF01090F4
:1007400000F04EF01A0001F044080EF0119000F095
:060750002EF08EF90FFEF1
:0C0CA400CEF96EF0109000F04EF01B0036
:100CB00001F044080EF0119000F02EF08EF90FFEB6
:100C3000CEF96EF0109000F04EF01C0001F0440868
:0C0C40000EF0119000F02EF08EF90FFE67
:08012800CEF96EF0109000F01A
:100130004EF01D0001F044080EF0119000F02EF07A
:040140008EF90FFE27
:1004B000CEF96EF0109000F04EF01E0001F04408EE
:0C04C0000EF0119000F02EF08EF90FFEEF
:02000800C00C2A
:04000C004C0C060092
:1000100074029002140C060044016001DC0BF80B22
:100020002E0D0600880C060006000600120D780D45
:1000300006000600FE021A0306000600060006007F
:10004000D403F0030600060006000600D002AC024E
:1000500006000600060006003603DA0C5403F60C10
:10006000080802071E073A070600A40C0600300C19
:08007000280106000600B0049F
:02084E0001F0B7
:10085000880A90A051F292A053F292A052F292A074
:1008600055F292A054F291A050F202C901F056073D
:1008700091A050F202C900F0460900E01390B8EED2
:10088000E2A060F282A068F2A2A068F2C0A068F2C2
:1008900081E01390B8EEDA700051F2C500E01390D9
:1008A000B8EEE2A060F282A068F2A0A068F2C2A056
:1008B00068F281E01390B8EEDA700051F2C500E002
:1008C0001390B8EEE2A060F280A068F2A2A068F2F5
:1008D000C2A068F281E01390B8EEDA700051F2C560
:1008E00000E01390B8EEE0A060F282A068F2A2A04F
:1008F00068F2C2A068F281E01390B8EEDA7000519D
:10090000F2C500E01390B8EEE2A060F280A068F2B9
:10091000A2A068F2C2A068F281E01390B8EEDA708B
:100920000051F2C500E01390B8EEE2A060F282A0A0
:1009300068F2A0A068F2C2A068F281E01390B8EE5D
:0E094000DA700051F2C501F00C0400F06608F8
:04040C005A001190F1
:100410000EF081A00EF0FAC9A50011900EF01FFE9B
:020352001FFE8C
:080A8800CEF880A02AF0A2A024
:100A90002AF0B0A02AF0E0A02AF0F0A02AF000008E
:100AA00011902CF011902EF011902FF001F0BC0756
:100AB00001F03E0601F0C40901F0700301F0680C7A
:100AC00000001190E0F81190E1F892A0E1F880A008
:100AD000E1F8D2A0E2F8F2A0E2F882A0E3F801F097
:100AE000A80401F04E090000119017F0119016F0C3
:100AF000119015F0119014F0119013F0119012F064
:100B0000119011F0119010F011901FF011901EF043
:100B100011901DF011901CF011901BF011901AF023
:100B2000119019F0119018F0B2A017F0EC02020326
:100B30000F0001F0200480A014F001F0AC040300C9
:100B400011900FF001F00C040D001190CEEE0A0090
:100B50001190CFEE0D001190EDEE0A001190EEEE27
:100B60000D001190FBEE0A001190FCEE0D001190AB
:100B700012EF0A00119013EF0D00119028EF0A00F8
:100B8000119029EFF40000015EF040021F03020003
:100B900001F0CE0402E101F0FE0000001190FFEF31
:100BA00001F0A809CA000B015EF00EE2C200EE01DE
:100BB00001F0520402E104CE01F0520301F00C04F2
:0A0BC0001090FFEF0170F8C88EF2EC
:060BCA00CEF801F07C01F1
:0C0BD00001001190FFEF01F0C8028EF24E
:0802C80001001190B3EE1FFECE
:0402EC0000F07C01A1
:080C680082A002F092A002F04C
:100C7000B0A002F0A2A002F090A003F080A003F0C8
:080C8000F0A003F008ED1FFED7
:0407BC0082A051F2D4
:1007C00092A051F2A2A051F280A053F280A052F266
:1007D00090A053F290A052F2A0A053F2A0A052F227
:1007E00082A055F282A054F292A055F292A054F247
:1007F000A2A055F2A2A054F282A050F292A050F210
:08080000A2A050F200F00C046C
:02063E0082A098
:1006400059F292A059F2A2A059F2B2A059F2C2A056
:1006500059F2D2A059F2E2A059F2F2A059F280A0C8
:100660005BF280A05AF290A05BF290A05AF2A0A098
:100670005BF2A0A05AF2B0A05BF2B0A05AF2C0A008
:100680005BF2C0A05AF2D0A05BF2D0A05AF2E0A078
:100690005BF2E0A05AF2F0A05BF2F0A05AF282A066
:1006A0005DF282A05CF292A05DF292A05CF2A2A048
:1006B0005DF2A2A05CF2B2A05DF2B2A05CF2C2A0B8
:1006C0005DF2C2A05CF2D2A05DF2D2A05CF2E2A028
:1006D0005DF2E2A05CF2F2A05DF2F2A05CF282A018
:1006E00058F292A058F2A2A058F2B2A058F2C2A0BA
:1006F00058F2D2A058F2E2A058F2F2A058F200F05C
:020700000C04E7
:0C09C40082A061F292A061F2A2A061F298
:1009D000B2A061F2C2A061F2D2A061F2E2A061F223
:1009E000F2A061F280A063F280A062F290A063F2B4
:1009F00090A062F2A0A063F2A0A062F2B0A063F2A5
:100A0000B0A062F2C0A063F2C0A062F2D0A063F214
:100A1000D0A062F2E0A063F2E0A062F2F0A063F284
:100A2000F0A062F282A065F282A064F292A065F268
:100A300092A064F2A2A065F2A2A064F2B2A065F254
:100A4000B2A064F2C2A065F2C2A064F2D2A065F2C4
:100A5000D2A064F2E2A065F2E2A064F2F2A065F234
:100A6000F2A064F282A060F292A060F2A2A060F212
:100A7000B2A060F2C2A060F2D2A060F2E2A060F286
:080A8000F2A060F200F00C048A
:1003700082A069F292A069F2A2A069F2B2A069F229
:10038000C2A069F2D2A069F280A06BF280A06AF2EA
:1003900090A06BF290A06AF2A0A06BF2A0A06AF20B
:1003A000B0A06BF2B0A06AF2C0A06BF2C0A06AF27B
:1003B000D0A06BF2D0A06AF282A068F292A068F29C
:1003C000A2A068F2B2A068F2C2A068F2D2A068F25D
:0403D00000F00C0429
:0A075600CEF800E0E2A060F282A0FD
:1007600068F2A2A068F2C2A068F281E03270005183
:10077000F4C500E200E0E0A060F280A068F2A0A072
:1007800068F2C0A068F281E04B700051F4C581E2CC
:1007900003720053EFC500E0E2A060F282A068F2AD
:1007A000A2A068F2C2A068F281E04B700051F4C5CB
:0C07B00001F00C0481A058F2CFC88EF2BA
:02000200940D5B
:0800780048656C6C6F20576FA6
:10008000726C6421202050494E4721202020494E87
:10009000505F30303030303030305F3030303030E2
:1000A0003030300000494E502052656365697665F6
:1000B0006400004F5554205265636569766564207D
:1000C000202020202020202000004D4C36313051AF
:1000D00031313220436F6E6E6563746564210000B8
:0A00F400802500000002000000005B
:020000003AEED6
:02000400960D57
:0C0D940001CEFFCE00E000E200E400E62B
:100DA0000008E0098AF0579088E8F079FCC10078E3
:100DB000FAC15A0CA50D119C0EF081A00EF0FBC9D2
:100DC000119D0EF0000A0CF0EA00AF905290FF70F7
:100DD00002C8FF7120C9AF905292AF905294AF9069
:100DE0005096AF90509780E4F0C901A20BC801A4BF
:100DF00009C86F90029882E07F90239882E2FEE417
:100E0000F8C8E3CE6F90009881E07F90219881E24E
:100E1000FFE4F8C8DACE01F00A000000119000F0FB
:040E200000F04E0888
:02000A001FFED7
:0600EA007800C2EE720076
:0200F00000000E
:0200F200FFFF0E
:107FE000FFFFFFFFFFFFFFFFFFFFFFFFFFFFFFFFA1
:107FF000FFFFFFFFFFFFFFFFFFFFFFFFFFFFFFFF91
:0204CE00CEF866
:1004D0005EFE1AAE5EFC5EF85EF4008800700FC926
:1004E000017002C800F0F405027002C800F0FC05BB
:1004F0007FE01EF41EF81EFCEAA11EFE8EF2000034
:10050000800100E244BC6EF0C29002B26EF001F0D5
:10051000240804E12EF0007000510052005302C87C
:100520007EE0E7CEFFE005F404D0037002C37DE077
:10053000E0CE05D0027002C37CE0DBCE06D00170B5
:1005400002C37BE0D6CE07D0017002C37AE0D1CEE1
:1005500008D0017002C379E0CCCE00E013902AEFFE
:1005600013902CEF13902EEF139030EF119032EF89
:1005700082A091F201F01406109092F20089F92005
:10058000008980801A909081038110801030119032
:1005900092F2C2A092F2109093F20089802000891A
:1005A00044BC05D02A9004D1038106D04A90138020
:1005B00007D15A91038108D06A90138090810381FA
:1005C000119193F2119494F2109095F20089F02019
:1005D000008950800F2090810381119195F282A0B3
:1005E00096F292A096F2A2A096F2B2A096F200E045
:1005F00000F0F20400E001E200F0040525F000E262
:100600007B937B927B917A903B933B923B913A9088
:0406100000F00405ED
:0E0452005EFE1AAE5EF805F882A091F282A05E
:1004600092F213902AEF13922CEF00E013902EEFEC
:1004700042B0139030EF0000119032EF0072005341
:100480000FC38090119090F212902AEF81E01390A8
:100490002AEF12902EEF81E013902EEF80A091F2C0
:0804A0001EF8EAA11EFE1FFE7A
:04017C00CEF85EFC5F
:10018000109092F20120007034C812902CEF12925D
:100190002EEF27F019C9109096F20820007012C8AF
:1001A000129C2AEFC090119090F2C5F081E013905C
:1001B0002AEF25F081E013902EEF80A091F200E06D
:1001C0001EFC8EF27FE0FCCE109091F201200070B8
:1001D0000EC8129030EF09C905FC00E0139030EF13
:1001E000109232EF12902CEFC3F001E0E9CE7EE0E6
:1001F000E7CE12902CEF12922EEF27F02CC9109020
:1002000096F207200082109032EF2380119032EF97
:1002100082A096F292A096F2A2A096F2129C2AEFE9
:10022000109090F2C19012902AEF81E013902AEF83
:1002300012902EEF81E013902EEF01A209C81290C8
:100240002CEF12922EEF27F006C900E000F0C0015B
:10025000010001F0F002129030EF09C905FC00E046
:10026000139030EF109232EF12902CEFC3F001E0B8
:0402700000F0C001D9
:0809A80082A091F200E013901F
:1009B0002AEF13902CEF13902EEF139030EF11903D
:0409C00032EF1FFEF5
:0E02F0000082109050EE2380119050EE1FFE01
:0200FE0092A0CE
:1001000059F290A05AF290A05BF292A05CF290A0FB
:100110005DF280A059F280A05AF282A05BF282A028
:080120005CF282A05DF21FFEFB
:0C06140092A059F292A05AF292A05BF260
:1006200092A05CF292A05DF282A059F282A05AF2EE
:0E06300082A05BF282A05CF282A05DF21FFE4F
:0A00E0000000000000000000000016
:0C082400CEF97EF06EF85EFC1AACCBF052
:1008300012005498349001F04A0D35901EFC2EF8A9
:040840003EF08EF305
:060D4A00200D00E400E6AC
:100D50001B971B961B951B941B931B921B911A9020
:100D600087F4A586B58705C188849985A986B98742
:080D700000A0FF1DEDC81FFEED
:00000001FF
