:060D0A005EF400001190F0
:100D100011F0119012F0119013F0119014F0119045
:100D200015F0119016F0119017F0119018F0119025
:100D300019F011901AF011901BF011901CF0119005
:100D40001DF011901EF011901FF000E445F046F0E8
:100D50003202050309A254EE81E41F740055F6C562
:040D60001EF41FFE60
:0405120008ED1FFED3
:02050E00F7EB09
:020510001FFECC
:0A0486006EF8008825FA1F7003C10C
:100490007FE02EF81FFE25F206C98080000106F0DD
:1004A00009AA54EE07CE8080000106F0320205034F
:0804B00009A254EE00E0EDCEBC
:020006000FFEEB
:020532001FFEAA
:0A0CE000000106F008A054EE02F037
:0E10C200CEFF6EF0109000F04EF0000001F036
:0C10D000E00C0EF0119000F02EF08EFFEE
:04100C00CEF96EF0BB
:10101000109000F04EF0010001F0E00C0EF0119085
:0810200000F02EF08EF90FFE26
:0C02A400CEF96EF0109000F04EF0020059
:1002B00001F0E00C0EF0119000F02EF08EF90FFE20
:1002C000CEF96EF0109000F04EF0030001F0E00C5B
:0C02D0000EF0119000F02EF08EF90FFEE1
:0C0FD400CEF96EF0109000F04EF004001A
:100FE00001F0E00C0EF0119000F02EF08EF90FFEE3
:0C017400CEF96EF0109000F04EF0050087
:1001800001F0E00C0EF0119000F02EF08EF90FFE51
:10019000CEF96EF0109000F04EF0060001F0E00C89
:0C01A0000EF0119000F02EF08EF90FFE12
:040F9C00CEF96EF02C
:100FA000109000F04EF0070001F0E00C0EF01190F0
:080FB00000F02EF08EF90FFE97
:080FB800CEF96EF0109000F07C
:100FC0004EF0080001F0E00C0EF0119000F02EF051
:040FD0008EF90FFE89
:10113000CEF96EF0109000F04EF0090001F0E00CD6
:0C1140000EF0119000F02EF08EF90FFE62
:06108A00CEF96EF010909B
:1010900000F04EF00A0001F0E00C0EF0119000F0AC
:0610A0002EF08EF90FFE98
:0C111400CEF96EF0109000F04EF00B00D1
:1011200001F0E00C0EF0119000F02EF08EF90FFEA1
:06117A00CEF96EF01090AA
:1011800000F04EF00C0001F0E00C0EF0119000F0B9
:061190002EF08EF90FFEA7
:02032E00CEF906
:100330006EF0109000F04EF00D0001F0E00C0EF0A9
:0A034000119000F02EF08EF90FFE70
:06034A00CEF96EF01090E8
:1003500000F04EF00E0001F0E00C0EF0119000F0F5
:060360002EF08EF90FFEE5
:0C040400CEF96EF0109000F04EF00F00EA
:1004100001F0E00C0EF0119000F02EF08EF90FFEBE
:10042000CEF96EF0109000F04EF0100001F0E00CEC
:0C0430000EF0119000F02EF08EF90FFE7F
:10030000CEF96EF0109000F04EF0110001F0E00C0C
:0C0310000EF0119000F02EF08EF90FFEA0
:0402DC00CEF96EF0F9
:1002E000109000F04EF0120001F0E00C0EF01190B2
:0802F00000F02EF08EF90FFE64
:0A036600CEF96EF0109000F04EF09A
:10037000130001F0E00C0EF0119000F02EF08EF959
:020380000FFE6E
:0410DC00CEF96EF0EB
:1010E000109000F04EF0140001F0E00C0EF01190A2
:0810F00000F02EF08EF90FFE56
:0C038400CEF96EF0109000F04EF0150065
:1003900001F0E00C0EF0119000F02EF08EF90FFE3F
:0810F800CEF96EF0109000F03B
:101100004EF0160001F0E00C0EF0119000F02EF001
:041110008EF90FFE47
:0C0CA400CEF96EF0109000F04EF017003A
:100CB00001F0E00C0EF0119000F02EF08EF90FFE16
:0C0C0400CEF96EF0109000F04EF01800D9
:100C100001F0E00C0EF0119000F02EF08EF90FFEB6
:100C2000CEF96EF0109000F04EF0190001F0E00CDB
:0C0C30000EF0119000F02EF08EF90FFE77
:040C3C00CEF96EF08F
:100C4000109000F04EF01A0001F0E00C0EF0119040
:080C500000F02EF08EF90FFEFA
:0A10A600CEF96EF0109000F04EF04D
:1010B0001B0001F0E00C0EF0119000F02EF08EF904
:0210C0000FFE21
:100FF000CEF96EF0109000F04EF01C0001F0E00C05
:0C1000000EF0119000F02EF08EF90FFEA3
:08015800CEF96EF0109000F0EA
:100160004EF01D0001F0E00C0EF0119000F02EF0AA
:040170008EF90FFEF7
:0A051600CEF96EF0109000F04EF0E8
:100520001E0001F0E00C0EF0119000F02EF08EF99C
:020530000FFEBC
:02000800C21024
:04000C000C100600CE
:10001000A402C002D40F0600740190019C0FB80F17
:10002000301106008A1006000600060014117A112D
:10003000060006002E034A0306000600060006001E
:100040000404200406000600060006000003DC028B
:1000500006000600060006006603DC108403F810A4
:10006000A40C040C200C3C0C0600A6100600F00F9B
:08007000580106000600160508
:060CEA0001F0440E0000C1
:100CF00001F026121390B8EE01F03C0401F08203DB
:0A0D000001F0A40601F08203F2CE18
:0E0472005A0011900EF081A00EF0FAC9A500FC
:0604800011900EF01FFEBA
:020382001FFE5C
:0C0E4400CEF880A02AF0A2A02AF0B0A0F6
:100E50002AF0E0A02AF0F0A02AF0000011902CF077
:100E600011902EF011902FF001F0580C01F0400B72
:100E700001F0800D01F0A00301F028100000119096
:100E8000E0F81190E1F892A0E1F880A0E1F8D2A09A
:100E9000E2F8F2A0E2F882A0E3F801F00E0501F01A
:100EA0000A0D0000119017F0119016F0119015F036
:100EB000119014F0119013F0119012F0119011F0A4
:100EC000119010F011901FF011901EF011901DF074
:100ED00011901CF011901BF011901AF0119019F064
:100EE000119018F0B2A017F01C0203030F0001F0DC
:100EF000860480A014F0A0A012F001F012050300F7
:100F000011900FF001F072040D001190CEEE0A0066
:100F10001190CFEE0D001190EDEE0A001190EEEE63
:100F20000D001190FBEE0A001190FCEE0D001190E7
:100F300012EF0A00119013EF0D00119028EF0A0034
:100F4000119029EFF40000015EF040021F0302003F
:100F500001F0340502E101F02E0100001190FFEFD5
:100F600001F0640D8A000F015EF00EE2C200EE0196
:100F700001F0B80402E104CE01F0820301F0720432
:0A0F80001090FFEF0170F8C88EF228
:060F8A00CEF801F0AC01FD
:0C0F900001001190FFEF01F0F8028EF25A
:0802F80001001190B3EE1FFE9E
:04031C0000F0AC0140
:0810280082A002F092A002F088
:10103000B0A002F0A2A002F090A003F080A003F004
:08104000F0A003F008ED1FFE13
:080C580082A051F292A051F2BA
:100C6000A2A051F280A053F280A052F290A053F2C1
:100C700090A052F2A0A053F2A0A052F282A055F28E
:100C800082A054F292A055F292A054F2A2A055F282
:100C9000A2A054F282A050F292A050F2A2A050F270
:040CA00000F07204EA
:100B400082A059F292A059F2A2A059F2B2A059F291
:100B5000C2A059F2D2A059F2E2A059F2F2A059F281
:100B600080A05BF280A05AF290A05BF290A05AF2B3
:100B7000A0A05BF2A0A05AF2B0A05BF2B0A05AF223
:100B8000C0A05BF2C0A05AF2D0A05BF2D0A05AF293
:100B9000E0A05BF2E0A05AF2F0A05BF2F0A05AF203
:100BA00082A05DF282A05CF292A05DF292A05CF263
:100BB000A2A05DF2A2A05CF2B2A05DF2B2A05CF2D3
:100BC000C2A05DF2C2A05CF2D2A05DF2D2A05CF243
:100BD000E2A05DF2E2A05CF2F2A05DF2F2A05CF2B3
:100BE00082A058F292A058F2A2A058F2B2A058F2F5
:100BF000C2A058F2D2A058F2E2A058F2F2A058F2E5
:040C000000F072048A
:100D800082A061F292A061F2A2A061F2B2A061F22F
:100D9000C2A061F2D2A061F2E2A061F2F2A061F21F
:100DA00080A063F280A062F290A063F290A062F251
:100DB000A0A063F2A0A062F2B0A063F2B0A062F2C1
:100DC000C0A063F2C0A062F2D0A063F2D0A062F231
:100DD000E0A063F2E0A062F2F0A063F2F0A062F2A1
:100DE00082A065F282A064F292A065F292A064F201
:100DF000A2A065F2A2A064F2B2A065F2B2A064F271
:100E0000C2A065F2C2A064F2D2A065F2D2A064F2E0
:100E1000E2A065F2E2A064F2F2A065F2F2A064F250
:100E200082A060F292A060F2A2A060F2B2A060F292
:100E3000C2A060F2D2A060F2E2A060F2F2A060F282
:040E400000F0720448
:1003A00082A069F292A069F2A2A069F2B2A069F2F9
:1003B000C2A069F2D2A069F280A06BF280A06AF2BA
:1003C00090A06BF290A06AF2A0A06BF2A0A06AF2DB
:1003D000B0A06BF2B0A06AF2C0A06BF2C0A06AF24B
:1003E000D0A06BF2D0A06AF282A068F292A068F26C
:1003F000A2A068F2B2A068F2C2A068F2D2A068F22D
:0404000000F0720492
:0C06A400CEF85EF401F0720400E00002E9
:1006B000099292EE81E016700051F9C50000119088
:1006C000FFEF01F0640D8A000F015EF015E2920069
:1006D000EE0101F0481002E104CE01F0820301F0C6
:1006E00072041090FFEF0170F8C8109092EE417004
:1006F0001FC8109093EE43701BC8109094EE4B707F
:1007000017C800001190FFEF01F0640D8A000F017F
:100710005EF016E21400EF0101F0B80402E104CE2D
:1007200001F0820301F072041090FFEF0170F8C82D
:10073000109092EE497002C900F03C09109093EEBF
:100740004E7002C900F03C09109094EE507002C93E
:1007500000F03C0904E4489292EED012499292EEE5
:100760002080017003C90002499292EE81E40C746A
:100770000055F1C5109096EE012003C9F0A061F27A
:1007800002CEF2A061F2109097EE012003C9E0A022
:1007900061F202CEE2A061F2109098EE012003C94E
:1007A000D0A061F202CED2A061F2109099EE0120A9
:1007B00003C9C0A061F202CEC2A061F210909AEE0D
:1007C000012003C9B0A061F202CEB2A061F2109084
:1007D0009BEE012003C9A0A061F202CEA2A061F2AB
:1007E00010909CEE012003C990A061F202CE92A06D
:1007F00061F210909DEE012003C980A061F202CE4B
:1008000082A061F2109061F27C9001203010119072
:10081000DCEE109061F26C90012030101190DDEE52
:10082000109061F25C90012030101190DEEE10907B
:1008300061F24C90012030101190DFEE109061F2C7
:100840003C90012030101190E0EE109061F22C905D
:10085000012030101190E1EE109061F21C90012007
:1008600030101190E2EE109061F2012030101190E2
:10087000E3EE109060F27C90012030101190E5EED4
:10088000109060F26C90012030101190E6EE109004
:1008900060F25C90012030101190E7EE109060F251
:1008A0004C90012030101190E8EE109060F23C90D6
:1008B000012030101190E9EE109060F22C90012090
:1008C00030101190EAEE109060F21C900120301070
:1008D0001190EBEE109060F2012030101190ECEED0
:0A08E00000001190FFEF01F0640D1D
:0608EA008A000F015EF020
:1008F00017E2D800EE0101F0B80402E104CE01F0E5
:10090000820301F072041090FFEF0170F8C800003C
:100910001190FFEF01F0640D8A000F015EF00EE20E
:10092000EF00EE0101F0B80402E104CE01F0820311
:1009300001F072041090FFEF0170F8C8109092EE71
:100940004F7002C900F03C0B109093EE557002C935
:1009500000F03C0B109094EE547002C900F03C0B78
:1009600004E4489292EED012499292EE20800170F7
:1009700003C90002499292EE81E415740055F1C555
:10098000109096EE012003C9F0A061F202CEF2A011
:1009900061F2109097EE012003C9E0A061F202CE4F
:1009A000E2A061F2109098EE012003C9D0A061F29C
:1009B00002CED2A061F2109099EE012003C9C0A02E
:1009C00061F202CEC2A061F210909AEE012003C93A
:1009D000B0A061F202CEB2A061F210909BEE0120B5
:1009E00003C9A0A061F202CEA2A061F210909CEE19
:1009F000012003C990A061F202CE92A061F2109092
:100A00009DEE012003C980A061F202CE82A061F2B6
:100A100010909FEE012003C9F0A060F202CEF2A078
:100A200060F21090A0EE012003C9E0A060F202CEB7
:100A3000E2A060F21090A1EE012003C9D0A060F204
:100A400002CED2A060F21090A2EE012003C9C0A095
:100A500060F202CEC2A060F21090A3EE012003C9A2
:100A6000B0A060F202CEB2A060F21090A4EE01201D
:100A700003C9A0A060F202CEA2A060F21090A5EE81
:100A8000012003C990A060F202CE92A060F2109003
:100A9000A6EE012003C980A060F202CE82A060F21F
:100AA000109060F27C900120301011900AEF1090AD
:100AB00060F26C900120301011900BEF109060F2FA
:100AC0005C900120301011900CEF109060F24C906F
:100AD0000120301011900DEF109060F23C90012039
:100AE000301011900EEF109060F22C900120301019
:100AF00011900FEF109060F21C90012030101190B7
:100B000010EF109060F201203010119011EF0000F2
:100B10001190FFEF01F0640D8A000F015EF017E203
:100B2000FD00EE0101F0B80402E104CE01F0820301
:040B300001F072045A
:0C0B34001090FFEF0170F8C81EF48EF264
:04043C00CEF801F005
:100440002E0100001190FFEF01F0640D8A000F01F2
:100450005EF008E2D000EE0101F0B80402E104CE43
:1004600001F0820301F072041090FFEF0170F8C8F0
:020470008EF20A
:0A1226005EF800880F810770005188
:1012300002C300F01A131B911A9008A0FE0002F0DE
:1012400082A0F1F200001190F2F280800F8107700D
:10125000005102C300F06A131B911A9008A00E01FE
:1012600002F0A2A012F080A0F1F210901AF021A0DA
:10127000FCC980800F810770005102C300F0F21397
:101280001B911A9008A01E0102F082A0F1F22B918E
:101290002A904D924C930382138325F01EF81FFE73
:1012A00080A051F282A053F282A052F2C9CE90A047
:1012B00051F292A053F292A052F2C2CE80A059F203
:1012C00082A05BF282A05AF2BBCE90A059F292A00B
:1012D0005BF292A05AF200F04012E0A059F2E2A0B4
:1012E0005BF2E2A05AF200F04012F0A059F2F2A034
:1012F0005BF2F2A05AF200F04012E0A061F2E2A02C
:1013000063F2E2A062F200F04012F0A061F2F2A0FB
:1013100063F2F2A062F200F0401280A051F282A0CB
:1013200053F282A052F200F0401280A0F2F200F0DC
:10133000621290A0F2F200F06212A0A0F2F200F0AD
:101340006212B0A0F2F200F06212C0A0F2F200F05D
:101350006212D0A0F2F200F06212E0A0F2F200F00D
:101360006212F0A0F2F200F0621280A0F2F200F03D
:1013700062121090D0F2000105F21090D1F200F04C
:101380008A121090D2F2000105F21090D3F200F010
:101390008A121090D4F2000105F21090D5F200F0FC
:1013A0008A121090D6F2000105F21090D7F200F0E8
:1013B0008A121090D8F2000105F21090D9F200F0D4
:1013C0008A121090DAF2000105F21090DBF200F0C0
:1013D0008A121090DCF2000105F21090DDF200F0AC
:1013E0008A121090DEF2000105F21090DFF200F098
:1013F0008A121090D0F2000105F21090D1F200F0A4
:021400008A124E
:02000200961155
:0200FE00A0124E
:10010000AE12BC12CA12DA12EA12FA120A132A1337
:1001100032133A1342134A1352135A1362137213CF
:0E01200082139213A213B213C213D213E2136E
:0800780048656C6C6F20576FA6
:10008000726C6421202050494E4721202020494E87
:10009000505F30303030303030305F3030303030E2
:1000A0003030300000494E502052656365697665F6
:1000B0006400004F5554205265636569766564207D
:1000C000202020202020202000004D4C36313051AF
:1000D00031313220436F6E6E6563746564210000B8
:0A00F400802500000002000000005B
:020000003AEED6
:02000400981151
:0A11960001CEFFCE00E000E200E40D
:1011A00000E60008E0098AF0579088E8F079FCC171
:1011B0000078FAC15A0CA50D119C0EF081A00EF01A
:1011C000FBC9119D0EF0000A0CF0EA00AF9052909E
:1011D000FF7002C8FF7120C9AF905292AF90529435
:1011E000AF905096AF90509780E4F0C901A20BC821
:1011F00001A409C86F90029882E07F90239882E250
:10120000FEE4F8C8E3CE6F90009881E07F902198CB
:1012100081E2FFE4F8C8DACE01F00A000000119084
:0612200000F000F0EA0CF2
:02000A001FFED7
:0600EA007800C2EE720076
:0200F00000000E
:0200F200FFFF0E
:107FE000FFFFFFFFFFFFFFFFFFFFFFFFFFFFFFFFA1
:107FF000FFFFFFFFFFFFFFFFFFFFFFFFFFFFFFFF91
:0C053400CEF85EFE1AAE5EFC5EF85EF4CF
:10054000008800700FC9017002C800F05A060270DE
:1005500002C800F062067FE01EF41EF81EFCEAA14D
:100560001EFE8EF20000800100E244BC6EF0C290DC
:1005700002B26EF001F0C00C04E12EF000700051E8
:100580000052005302C87EE0E7CEFFE005F404D03D
:10059000037002C37DE0E0CE05D0027002C37CE0B0
:1005A000DBCE06D0017002C37BE0D6CE07D001704F
:1005B00002C37AE0D1CE08D0017002C379E0CCCE7C
:1005C00000E013902AEF13902CEF13902EEF13906E
:1005D00030EF119032EF82A091F201F07A06109084
:1005E00092F20089F920008980801A90908103811D
:1005F00010801030119092F2C2A092F2109093F2FB
:1006000000898020008944BC05D02A9004D1038150
:1006100006D04A90138007D15A91038108D06A907E
:10062000138090810381119193F2119494F21090B0
:1006300095F20089F020008950800F20908103817D
:10064000119195F282A096F292A096F2A2A096F253
:10065000B2A096F200E000F0580500E001E200F0E0
:100660006A0525F000E27B937B927B917A903B9325
:0A0670003B923B913A9000F06A05BE
:0804B8005EFE1AAE5EF805F8C5
:1004C00082A091F282A092F213902AEF13922CEF65
:1004D00000E013902EEF42B0139030EF0000119027
:1004E00032EF007200530FC38090119090F212907F
:1004F0002AEF81E013902AEF12902EEF81E0139003
:0E0500002EEF80A091F21EF8EAA11EFE1FFE53
:081048005EFE1AAE82A091F2D7
:1010500082A096F292A096F2A2A096F280A092F2BE
:1010600013902AEF13922CEF00E013902EEF42B072
:10107000139030EF0000119032EF0072005302C362
:0A10800080A091F2EAA11EFE1FFEFF
:0401AC00CEF85EFC2F
:1001B000109092F20120007034C812902CEF12922D
:1001C0002EEF27F019C9109096F20820007012C87F
:1001D000129C2AEFC090119090F2C5F081E013902C
:1001E0002AEF25F081E013902EEF80A091F200E03D
:1001F0001EFC8EF27FE0FCCE109091F20120007088
:100200000EC8129030EF09C905FC00E0139030EFE2
:10021000109232EF12902CEFC3F001E0E9CE7EE0B5
:10022000E7CE12902CEF12922EEF27F02CC91090EF
:1002300096F207200082109032EF2380119032EF67
:1002400082A096F292A096F2A2A096F2129C2AEFB9
:10025000109090F2C19012902AEF81E013902AEF53
:1002600012902EEF81E013902EEF01A209C8129098
:100270002CEF12922EEF27F006C900E000F0F001FB
:10028000010001F02003129030EF09C905FC00E0E5
:10029000139030EF109232EF12902CEFC3F001E088
:0402A00000F0F00179
:0C0D640082A091F200E013902AEF13909F
:100D70002CEF13902EEF139030EF119032EF1FFEF7
:0E0320000082109050EE2380119050EE1FFED0
:02012E0092A09D
:1001300059F290A05AF290A05BF292A05CF290A0CB
:100140005DF280A059F280A05AF282A05BF282A0F8
:080150005CF282A05DF21FFECB
:06067A0092A059F292A0CB
:100680005AF292A05BF292A05CF292A05DF282A07C
:1006900059F282A05AF282A05BF282A05CF282A0A0
:0406A0005DF21FFEEA
:0A00E0000000000000000000000016
:100CC000CEF97EF06EF85EFC1AACCBF012005498B0
:100CD000349001F04C1135901EFC2EF83EF08EF34E
:04114C00200D00E48E
:1011500000E61B971B961B951B941B931B921B91E0
:101160001A9087F4A586B58705C188849985A986D4
:0A117000B98700A0FF1DEDC81FFEA7
:00000001FF
