:100CD0005EF40000119011F0119012F0119013F0D9
:100CE000119014F0119015F0119016F0119017F06A
:100CF000119018F0119019F011901AF011901BF04A
:100D000011901CF011901DF011901EF011901FF029
:100D100000E445F046F00202050309A256EE81E424
:0A0D20001F740055F6C51EF41FFEF7
:0404E20008ED1FFE04
:0204DE00F7EB3A
:0204E0001FFEFD
:0A0456006EF8008825FA1F7003C13C
:100460007FE02EF81FFE25F206C98080000106F00D
:1004700009AA56EE07CE8080000106F002020503AD
:0804800009A256EE00E0EDCEEA
:020006000FFEEB
:020502001FFEDA
:0A0CB000000106F008A056EE02F065
:0C108400CEFF6EF0109000F04EF0000067
:0E10900001F0B00C0EF0119000F02EF08EFF6B
:020FCE00CEF95A
:100FD0006EF0109000F04EF0010001F0B00C0EF039
:0A0FE000119000F02EF08EF90FFEC4
:0C027400CEF96EF0109000F04EF0020089
:1002800001F0B00C0EF0119000F02EF08EF90FFE80
:10029000CEF96EF0109000F04EF0030001F0B00CBB
:0C02A0000EF0119000F02EF08EF90FFE11
:0A0F9600CEF96EF0109000F04EF05E
:100FA000040001F0B00C0EF0119000F02EF08EF95C
:020FB0000FFE32
:0C014400CEF96EF0109000F04EF00500B7
:1001500001F0B00C0EF0119000F02EF08EF90FFEB1
:10016000CEF96EF0109000F04EF0060001F0B00CE9
:0C0170000EF0119000F02EF08EF90FFE42
:020F5E00CEF9CA
:100F60006EF0109000F04EF0070001F0B00C0EF0A3
:0A0F7000119000F02EF08EF90FFE34
:060F7A00CEF96EF01090AC
:100F800000F04EF0080001F0B00C0EF0119000F0EF
:060F90002EF08EF90FFEA9
:0E10F200CEF96EF0109000F04EF0090001F003
:0E110000B00C0EF0119000F02EF08EF90FFEE4
:04104C00CEF96EF07B
:10105000109000F04EF00A0001F0B00C0EF011906C
:0810600000F02EF08EF90FFEE6
:0A10D600CEF96EF0109000F04EF01D
:1010E0000B0001F0B00C0EF0119000F02EF08EF914
:0210F0000FFEF1
:04113C00CEF96EF08A
:10114000109000F04EF00C0001F0B00C0EF0119079
:0811500000F02EF08EF90FFEF5
:0202FE00CEF937
:100300006EF0109000F04EF00D0001F0B00C0EF009
:0A031000119000F02EF08EF90FFEA0
:06031A00CEF96EF0109018
:1003200000F04EF00E0001F0B00C0EF0119000F055
:060330002EF08EF90FFE15
:0C03D400CEF96EF0109000F04EF00F001B
:1003E00001F0B00C0EF0119000F02EF08EF90FFE1F
:1003F000CEF96EF0109000F04EF0100001F0B00C4D
:0C0400000EF0119000F02EF08EF90FFEAF
:1002D000CEF96EF0109000F04EF0110001F0B00C6D
:0C02E0000EF0119000F02EF08EF90FFED1
:0402AC00CEF96EF029
:1002B000109000F04EF0120001F0B00C0EF0119012
:0802C00000F02EF08EF90FFE94
:0A033600CEF96EF0109000F04EF0CA
:10034000130001F0B00C0EF0119000F02EF08EF9B9
:020350000FFE9E
:02109E00CEF989
:1010A0006EF0109000F04EF0140001F0B00C0EF055
:0A10B000119000F02EF08EF90FFEF3
:0C035400CEF96EF0109000F04EF0150095
:1003600001F0B00C0EF0119000F02EF08EF90FFE9F
:0610BA00CEF96EF010906B
:1010C00000F04EF0160001F0B00C0EF0119000F0A0
:0610D0002EF08EF90FFE68
:0C0C7400CEF96EF0109000F04EF017006A
:100C800001F0B00C0EF0119000F02EF08EF90FFE76
:0C0BD400CEF96EF0109000F04EF018000A
:100BE00001F0B00C0EF0119000F02EF08EF90FFE17
:100BF000CEF96EF0109000F04EF0190001F0B00C3C
:0C0C00000EF0119000F02EF08EF90FFEA7
:040C0C00CEF96EF0BF
:100C1000109000F04EF01A0001F0B00C0EF01190A0
:080C200000F02EF08EF90FFE2A
:08106800CEF96EF0109000F0CB
:101070004EF01B0001F0B00C0EF0119000F02EF0BD
:041080008EF90FFED8
:0E0FB200CEF96EF0109000F04EF01C0001F031
:0E0FC000B00C0EF0119000F02EF08EF90FFE26
:08012800CEF96EF0109000F01A
:100130004EF01D0001F0B00C0EF0119000F02EF00A
:040140008EF90FFE27
:0A04E600CEF96EF0109000F04EF019
:1004F0001E0001F0B00C0EF0119000F02EF08EF9FD
:020500000FFEEC
:02000800841062
:04000C00CE0F06000D
:1000100074029002960F0600440160015E0F7A0F91
:10002000F21006004C10060006000600D6103C1127
:1000300006000600FE021A0306000600060006007F
:10004000D403F0030600060006000600D002AC024E
:10005000060006000600060036039E105403BA1080
:10006000740CD40BF00B0C0C060068100600B20FD9
:08007000280106000600E60469
:060CBA0001F00A0E01F03A
:100CC0000C0401F0520301F0740601F05203F7CE58
:0E0442005A0011900EF081A00EF0FAC9A5002C
:0604500011900EF01FFEEA
:020352001FFE8C
:060E0A00CEF880A02AF0E2
:100E1000A2A02AF0B0A02AF0E0A02AF0F0A02AF0C8
:100E2000000011902CF011902EF011902FF001F095
:100E3000280C01F0100B01F0460D01F0700301F0D9
:100E4000EA0F00001190E0F81190E1F892A0E1F8AB
:100E500080A0E1F8D2A0E2F8F2A0E2F882A0E3F8E4
:100E600001F0DE0401F0D00C0000119017F0119099
:100E700016F0119015F0119014F0119013F01190DC
:100E800012F0119011F0119010F011901FF01190CC
:100E90001EF011901DF011901CF011901BF011909C
:100EA0001AF0119019F0119018F0B2A017F0EC029E
:100EB00002030F0001F0560480A014F001F0E204D8
:100EC000030011900FF001F042040D001190CEEEDE
:100ED0000A001190CFEE0D001190EDEE0A00119076
:100EE000EEEE0D001190FBEE0A001190FCEE0D00ED
:100EF000119012EF0A00119013EF0D00119028EFDE
:100F00000A00119029EFF40000015EF040021F0377
:100F1000020001F0040502E101F0FE000000119062
:100F2000FFEF01F02A0D4C000F015EF00EE2C2004F
:100F3000EE0101F0880402E104CE01F0520301F059
:0C0F400042041090FFEF0170F8C88EF220
:040F4C00CEF801F0EA
:0E0F50007C0101001190FFEF01F0C8028EF24B
:0802C80001001190B5EE1FFECC
:0402EC0000F07C01A1
:060FEA0082A002F092A0BB
:100FF00002F0B0A002F0A2A002F090A003F080A046
:0A10000003F0F0A003F008ED1FFE5E
:080C280082A051F292A051F2EA
:100C3000A2A051F280A053F280A052F290A053F2F1
:100C400090A052F2A0A053F2A0A052F282A055F2BE
:100C500082A054F292A055F292A054F2A2A055F2B2
:100C6000A2A054F282A050F292A050F2A2A050F2A0
:040C700000F042044A
:100B100082A059F292A059F2A2A059F2B2A059F2C1
:100B2000C2A059F2D2A059F2E2A059F2F2A059F2B1
:100B300080A05BF280A05AF290A05BF290A05AF2E3
:100B4000A0A05BF2A0A05AF2B0A05BF2B0A05AF253
:100B5000C0A05BF2C0A05AF2D0A05BF2D0A05AF2C3
:100B6000E0A05BF2E0A05AF2F0A05BF2F0A05AF233
:100B700082A05DF282A05CF292A05DF292A05CF293
:100B8000A2A05DF2A2A05CF2B2A05DF2B2A05CF203
:100B9000C2A05DF2C2A05CF2D2A05DF2D2A05CF273
:100BA000E2A05DF2E2A05CF2F2A05DF2F2A05CF2E3
:100BB00082A058F292A058F2A2A058F2B2A058F225
:100BC000C2A058F2D2A058F2E2A058F2F2A058F215
:040BD00000F04204EB
:0A0D460082A061F292A061F2A2A067
:100D500061F2B2A061F2C2A061F2D2A061F2E2A09F
:100D600061F2F2A061F280A063F280A062F290A032
:100D700063F290A062F2A0A063F2A0A062F2B0A021
:100D800063F2B0A062F2C0A063F2C0A062F2D0A091
:100D900063F2D0A062F2E0A063F2E0A062F2F0A001
:100DA00063F2F0A062F282A065F282A064F292A0E7
:100DB00065F292A064F2A2A065F2A2A064F2B2A0D1
:100DC00065F2B2A064F2C2A065F2C2A064F2D2A041
:100DD00065F2D2A064F2E2A065F2E2A064F2F2A0B1
:100DE00065F2F2A064F282A060F292A060F2A2A08A
:100DF00060F2B2A060F2C2A060F2D2A060F2E2A003
:0A0E000060F2F2A060F200F042047C
:1003700082A069F292A069F2A2A069F2B2A069F229
:10038000C2A069F2D2A069F280A06BF280A06AF2EA
:1003900090A06BF290A06AF2A0A06BF2A0A06AF20B
:1003A000B0A06BF2B0A06AF2C0A06BF2C0A06AF27B
:1003B000D0A06BF2D0A06AF282A068F292A068F29C
:1003C000A2A068F2B2A068F2C2A068F2D2A068F25D
:0403D00000F04204F3
:0C067400CEF85EF401F0420400E0000249
:10068000099294EE81E016700051F9C500001190B6
:10069000FFEF01F02A0D4C000F015EF015E294000F
:1006A000EE0101F00A1002E104CE01F0520301F064
:1006B00042041090FFEF0170F8C8109094EE417062
:1006C0001FC8109095EE43701BC8109096EE4B70AB
:1006D00017C800001190FFEF01F02A0D4C000F0128
:1006E0005EF016E21400EF0101F0880402E104CE8E
:1006F00001F0520301F042041090FFEF0170F8C8BE
:10070000109094EE497002C900F00C09109095EE1B
:100710004E7002C900F00C09109096EE507002C99C
:1007200000F00C0904E4489294EED012499294EE41
:100730002080017003C90002499294EE81E40C7498
:100740000055F1C5109098EE012003C9F0A061F2A8
:1007500002CEF2A061F2109099EE012003C9E0A050
:1007600061F202CEE2A061F210909AEE012003C97C
:10077000D0A061F202CED2A061F210909BEE0120D7
:1007800003C9C0A061F202CEC2A061F210909CEE3B
:10079000012003C9B0A061F202CEB2A061F21090B4
:1007A0009DEE012003C9A0A061F202CEA2A061F2D9
:1007B00010909EEE012003C990A061F202CE92A09B
:1007C00061F210909FEE012003C980A061F202CE79
:1007D00082A061F2109061F27C90012030101190A3
:1007E000DCEE109061F26C90012030101190DDEE83
:1007F000109061F25C90012030101190DEEE1090AC
:1008000061F24C90012030101190DFEE109061F2F7
:100810003C90012030101190E0EE109061F22C908D
:10082000012030101190E1EE109061F21C90012037
:1008300030101190E2EE109061F201203010119012
:10084000E3EE109060F27C90012030101190E5EE04
:10085000109060F26C90012030101190E6EE109034
:1008600060F25C90012030101190E7EE109060F281
:100870004C90012030101190E8EE109060F23C9006
:10088000012030101190E9EE109060F22C900120C0
:1008900030101190EAEE109060F21C9001203010A0
:1008A0001190EBEE109060F2012030101190ECEE00
:0A08B00000001190FFEF01F02A0D87
:0608BA004C000F015EF08E
:1008C00017E2D800EE0101F0880402E104CE01F045
:1008D000520301F042041090FFEF0170F8C80000CD
:1008E0001190FFEF01F02A0D4C000F015EF00EE2B7
:1008F000EF00EE0101F0880402E104CE01F05203A2
:1009000001F042041090FFEF0170F8C8109094EECF
:100910004F7002C900F00C0B109095EE557002C993
:1009200000F00C0B109096EE547002C900F00C0B06
:1009300004E4489294EED012499294EE2080017023
:1009400003C90002499294EE81E415740055F1C583
:10095000109098EE012003C9F0A061F202CEF2A03F
:1009600061F2109099EE012003C9E0A061F202CE7D
:10097000E2A061F210909AEE012003C9D0A061F2CA
:1009800002CED2A061F210909BEE012003C9C0A05C
:1009900061F202CEC2A061F210909CEE012003C968
:1009A000B0A061F202CEB2A061F210909DEE0120E3
:1009B00003C9A0A061F202CEA2A061F210909EEE47
:1009C000012003C990A061F202CE92A061F21090C2
:1009D0009FEE012003C980A061F202CE82A061F2E5
:1009E0001090A1EE012003C9F0A060F202CEF2A0A7
:1009F00060F21090A2EE012003C9E0A060F202CEE6
:100A0000E2A060F21090A3EE012003C9D0A060F232
:100A100002CED2A060F21090A4EE012003C9C0A0C3
:100A200060F202CEC2A060F21090A5EE012003C9D0
:100A3000B0A060F202CEB2A060F21090A6EE01204B
:100A400003C9A0A060F202CEA2A060F21090A7EEAF
:100A5000012003C990A060F202CE92A060F2109033
:100A6000A8EE012003C980A060F202CE82A060F24D
:100A7000109060F27C900120301011900AEF1090DD
:100A800060F26C900120301011900BEF109060F22A
:100A90005C900120301011900CEF109060F24C909F
:100AA0000120301011900DEF109060F23C90012069
:100AB000301011900EEF109060F22C900120301049
:100AC00011900FEF109060F21C90012030101190E7
:100AD00010EF109060F201203010119011EF000023
:100AE0001190FFEF01F02A0D4C000F015EF017E2AC
:100AF000FD00EE0101F0880402E104CE01F0520392
:040B000001F04204BA
:0C0B04001090FFEF0170F8C81EF48EF294
:04040C00CEF801F035
:10041000FE0000001190FFEF01F02A0D4C000F01CB
:100420005EF008E2D000EE0101F0880402E104CEA3
:1004300001F0520301F042041090FFEF0170F8C880
:020440008EF23A
:02000200581193
:0800780048656C6C6F20576FA6
:10008000726C6421202050494E4721202020494E87
:10009000505F30303030303030305F3030303030E2
:1000A0003030300000494E502052656365697665F6
:1000B0006400004F5554205265636569766564207D
:1000C000202020202020202000004D4C36313051AF
:1000D00031313220436F6E6E6563746564210000B8
:0A00F400802500000002000000005B
:020000003CEED4
:020004005A118F
:0811580001CEFFCE00E000E231
:1011600000E400E60008E0098AF0579088E8F0798A
:10117000FCC10078FAC15A0CA50D119C0EF081A09B
:101180000EF0FBC9119D0EF0000A0CF0EA00AF90C2
:101190005290FF7002C8FF7120C9AF905292AF9079
:1011A0005294AF905096AF90509780E4F0C901A24E
:1011B0000BC801A409C86F90029882E07F90239821
:1011C00082E2FEE4F8C8E3CE6F90009881E07F9061
:1011D000219881E2FFE4F8C8DACE01F00A000000AD
:0811E000119000F000F0BA0CC0
:02000A001FFED7
:0600EA007800C2EE720076
:0200F00000000E
:0200F200FFFF0E
:107FE000FFFFFFFFFFFFFFFFFFFFFFFFFFFFFFFFA1
:107FF000FFFFFFFFFFFFFFFFFFFFFFFFFFFFFFFF91
:0C050400CEF85EFE1AAE5EFC5EF85EF4FF
:10051000008800700FC9017002C800F02A0602703E
:1005200002C800F032067FE01EF41EF81EFCEAA1AD
:100530001EFE8EF20000800100E244BC6EF0C2900C
:1005400002B26EF001F0900C04E12EF00070005148
:100550000052005302C87EE0E7CEFFE005F404D06D
:10056000037002C37DE0E0CE05D0027002C37CE0E0
:10057000DBCE06D0017002C37BE0D6CE07D001707F
:1005800002C37AE0D1CE08D0017002C379E0CCCEAC
:1005900000E013902AEF13902CEF13902EEF13909E
:1005A00030EF119032EF82A091F201F04A061090E4
:1005B00092F20089F920008980801A90908103814D
:1005C00010801030119092F2C2A092F2109093F22B
:1005D00000898020008944BC05D02A9004D1038181
:1005E00006D04A90138007D15A91038108D06A90AF
:1005F000138090810381119193F2119494F21090E1
:1006000095F20089F020008950800F2090810381AD
:10061000119195F282A096F292A096F2A2A096F283
:10062000B2A096F200E000F0280500E001E200F040
:100630003A0525F000E27B937B927B917A903B9385
:0A0640003B923B913A9000F03A051E
:080488005EFE1AAE5EF805F8F5
:1004900082A091F282A092F213902AEF13922CEF95
:1004A00000E013902EEF42B0139030EF0000119057
:1004B00032EF007200530FC38090119090F21290AF
:1004C0002AEF81E013902AEF12902EEF81E0139033
:0E04D0002EEF80A091F21EF8EAA11EFE1FFE84
:06100A005EFE1AAE82A09A
:1010100091F282A096F292A096F2A2A096F280A0FF
:1010200092F213902AEF13922CEF00E013902EEF20
:1010300042B0139030EF0000119032EF0072005375
:0C10400002C380A091F2EAA11EFE1FFE78
:04017C00CEF85EFC5F
:10018000109092F20120007034C812902CEF12925D
:100190002EEF27F019C9109096F20820007012C8AF
:1001A000129C2AEFC090119090F2C5F081E013905C
:1001B0002AEF25F081E013902EEF80A091F200E06D
:1001C0001EFC8EF27FE0FCCE109091F201200070B8
:1001D0000EC8129030EF09C905FC00E0139030EF13
:1001E000109232EF12902CEFC3F001E0E9CE7EE0E6
:1001F000E7CE12902CEF12922EEF27F02CC9109020
:1002000096F207200082109032EF2380119032EF97
:1002100082A096F292A096F2A2A096F2129C2AEFE9
:10022000109090F2C19012902AEF81E013902AEF83
:1002300012902EEF81E013902EEF01A209C81290C8
:100240002CEF12922EEF27F006C900E000F0C0015B
:10025000010001F0F002129030EF09C905FC00E046
:10026000139030EF109232EF12902CEFC3F001E0B8
:0402700000F0C001D9
:060D2A0082A091F200E03E
:100D300013902AEF13902CEF13902EEF139030EFB7
:060D4000119032EF1FFECE
:0E02F0000082109052EE2380119052EE1FFEFD
:0200FE0092A0CE
:1001000059F290A05AF290A05BF292A05CF290A0FB
:100110005DF280A059F280A05AF282A05BF282A028
:080120005CF282A05DF21FFEFB
:06064A0092A059F292A0FB
:100650005AF292A05BF292A05CF292A05DF282A0AC
:1006600059F282A05AF282A05BF282A05CF282A0D0
:040670005DF21FFE1A
:0A00E0000000000000000000000016
:100C9000CEF97EF06EF85EFC1AACCBF012005498E0
:100CA000349001F00E1135901EFC2EF83EF08EF3BC
:02110E00200DB2
:1011100000E400E61B971B961B951B941B931B92E8
:101120001B911A9087F4A586B58705C18884998597
:0C113000A986B98700A0FF1DEDC81FFEB6
:00000001FF
