:1007F000CEF85EFE1AAE6EF86EF4008825FA44D08C
:10080000017006C37FE02EF42EF8EAA11EFE8EF2E0
:10081000007805C8500400056406000707CE01787B
:1008200002C900F00A0914E490060107A5F045F298
:1008300001F0920D67F002C200002ECE45F02B9120
:100840002A9046F006F046F00A0229F005F2A5F0DB
:1008500001F0920D67F002C201001ECE45F046F095
:1008600046F02B912A900A0229F005F2A5F001F03A
:10087000920D67F002C202000FCE45F046F046F03E
:100880002B912A9046F00A0229F005F2A5F001F01A
:10089000920D67F03DC2030000820000119032EF1C
:1008A00000E0139034EF139036EF139038EF13906D
:1008B0003AEF13903CEF13903EEF119040EF119000
:1008C00041EF82A0A4F2D2A059F2D2A05AF2D0A055
:1008D0005BF2D2A05CF2D0A05DF2E2A059F2E2A0FD
:1008E0005AF2E0A05BF2E2A05CF2E0A05DF2808050
:1008F0001A9020812A91038144D04A9013800130BC
:100900001190A4F200E000F006087EE000F0060876
:060910007DE000F0060886
:0A1266005EFE1AAE5EF8008800007C
:10127000119032EF139234EF42B0139036EF44B036
:10128000139038EF46B013903AEF00E013903CEF24
:1012900048B013903EEF0000119040EF119041EFE5
:1012A000129036EF08C812903AEF05C801E01EF818
:1012B000EAA11EFE1FFE1090A5F20120017002C8D7
:1012C0007FE0F5CE0100119041EF80801A901190DF
:0C12D000A1F201001190A3F200E0E9CEB1
:0C0464005EFE1AAE5EF8008801001190E8
:1004700032EF139234EF42B0139036EF44B0139042
:1004800038EF46B013903AEF00E013903CEF48B0DD
:1004900013903EEF0000119040EF119041EF129049
:1004A00036EF08C812903AEF05C801E01EF8EAA13D
:1004B0001EFE1FFE1090A5F20120017002C87FE011
:1004C000F5CE0100119041EF129036EF04C8808004
:1004D0001A90013002CE80801A901190A1F2010092
:0804E0001190A3F200E0E2CE4E
:040DBC00CEF85EFC13
:100DC0005EF41090A5F20081109041EF0EC9017001
:100DD0001CC9027002C800F0DE0E037002C800F0E9
:100DE0007E0F047002C800F0D20F12903EEF09C9C6
:100DF00005F400E013903EEF109240EF12903CEFAC
:100E000043F001E01EF41EFC8EF2108004200470FA
:100E100017C80000119041EF0200119040EF000050
:100E20001190A3F212903EEF09C905F400E013906F
:100E30003EEF109240EF12903CEF43F001E0E2CE23
:100E40001080022002700AC80000119041EF0100DA
:100E5000119040EF02001190A3F23ECE129036EFB7
:100E600015C90200119041EF129C34EFC09011900F
:100E7000A2F2C5F081E0139034EF129036EFFFE05C
:100E8000139036EF01001190A3F226CE109032EFAE
:100E90000FC90400119041EF010412903AEFFFE0F6
:100EA00012923CEF27F001C881041194A3F214CEF2
:100EB0000300119041EF129C38EFC0901190A2F204
:100EC000C5F081E0139038EF12903CEF81E0139071
:100ED0003CEF01001190A3F200E000F0040E10803E
:100EE000022002700BC80000119041EF0100119028
:100EF00040EF02001190A3F200F0780F129036EF4D
:100F000012C9129C34EFC0901190A2F2C5F081E09A
:100F1000139034EF129036EFFFE0139036EF01009C
:100F20001190A3F229CE12903AEF07C80000119059
:100F300041EF02001190A3F21FCE109032EF08C9CA
:100F40000100119041EF80A0A1F2A0A0A3F214CE65
:100F50000300119041EF129C38EFC0901190A2F263
:100F6000C5F081E0139038EF12903CEF81E01390D0
:100F70003CEF01001190A3F200E000F0040E10809D
:100F80000220027008C80000119041EF010011908A
:100F900040EF020019CE12903AEF12923CEF27F088
:100FA0000FC9129C38EFC0901190A2F2C5F081E0F9
:100FB000139038EF25F081E013903CEF010004CE50
:100FC0000000119041EF02001190A3F200E000F048
:060FD000040E129C38EF34
:0A0FD6001090A0F2C190129038EFC5
:100FE00081E0139038EF12903CEF81E013903CEFDA
:100FF00012903AEF12923CEF27F008C90104FFE08B
:1010000027F001C881041194A3F206CE00001190CC
:0E10100041EF02001190A3F200E000F0040E88
:0E09D20082A0A3F20000119032EF00E013901B
:1009E00034EF139036EF139038EF13903AEF1390E3
:1009F0003CEF13903EEF119040EF119041EF1FFE3E
:08007800000000000000000080
:08008000000000000000000078
:0C0AB4005EF40000119011F0119012F09F
:100AC000119013F0119014F0119015F0119016F090
:100AD000119017F0119018F0119019F011901AF070
:100AE00011901BF011901CF011901DF011901EF050
:100AF00011901FF000E445F046F0A802050309A29A
:0E0B0000DEEE81E41F740055F6C51EF41FFEE4
:0405880008ED1FFE5D
:04058400F7EB1FFE74
:0404FC006EF800880E
:1005000025FA1F7003C17FE02EF81FFE25F206C9F1
:100510008080000106F009AADEEE07CE808000018F
:0E05200006F0A802050309A2DEEE00E0EDCE13
:020006000FFEEB
:0205A8001FFE34
:0A0A2000000106F008A0DEEE02F06F
:0E110200CEFF6EF0109000F04EF0000001F0F5
:0C111000200A0EF0119000F02EF08EFF6F
:02108E00CEF999
:101090006EF0109000F04EF0010001F0200A0EF00A
:0A10A000119000F02EF08EF90FFE03
:0402CC00CEF96EF009
:1002D000109000F04EF0020001F0200A0EF0119094
:0802E00000F02EF08EF90FFE74
:0802E800CEF96EF0109000F059
:1002F0004EF0030001F0200A0EF0119000F02EF0F5
:040300008EF90FFE65
:0A105600CEF96EF0109000F04EF09D
:10106000040001F0200A0EF0119000F02EF08EF92D
:021070000FFE71
:04019C00CEF96EF03A
:1001A000109000F04EF0050001F0200A0EF01190C2
:0801B00000F02EF08EF90FFEA5
:0801B800CEF96EF0109000F08A
:1001C0004EF0060001F0200A0EF0119000F02EF023
:0401D0008EF90FFE97
:02101E00CEF909
:101020006EF0109000F04EF0070001F0200A0EF074
:0A103000119000F02EF08EF90FFE73
:06103A00CEF96EF01090EB
:1010400000F04EF0080001F0200A0EF0119000F0C0
:061050002EF08EF90FFEE8
:10117000CEF96EF0109000F04EF0090001F0200A58
:0C1180000EF0119000F02EF08EF90FFE22
:0610CA00CEF96EF010905B
:1010D00000F04EF00A0001F0200A0EF0119000F02E
:0610E0002EF08EF90FFE58
:0C115400CEF96EF0109000F04EF00B0091
:1011600001F0200A0EF0119000F02EF08EF90FFE23
:0611BA00CEF96EF010906A
:1011C00000F04EF00C0001F0200A0EF0119000F03B
:0611D0002EF08EF90FFE67
:0A035600CEF96EF0109000F04EF0AA
:100360000D0001F0200A0EF0119000F02EF08EF931
:020370000FFE7E
:0E037200CEF96EF0109000F04EF00E0001F08B
:0E038000200A0EF0119000F02EF08EF90FFE04
:04042C00CEF96EF0A7
:10043000109000F04EF00F0001F0200A0EF0119025
:0804400000F02EF08EF90FFE12
:08044800CEF96EF0109000F0F7
:100450004EF0100001F0200A0EF0119000F02EF086
:040460008EF90FFE04
:08032800CEF96EF0109000F018
:100330004EF0110001F0200A0EF0119000F02EF0A6
:040340008EF90FFE25
:0C030400CEF96EF0109000F04EF01200E8
:1003100001F0200A0EF0119000F02EF08EF90FFE81
:02038E00CEF9A6
:100390006EF0109000F04EF0130001F0200A0EF005
:0A03A000119000F02EF08EF90FFE10
:04111C00CEF96EF0AA
:10112000109000F04EF0140001F0200A0EF0119023
:0811300000F02EF08EF90FFE15
:0403AC00CEF96EF028
:1003B000109000F04EF0150001F0200A0EF01190A0
:0803C00000F02EF08EF90FFE93
:08113800CEF96EF0109000F0FA
:101140004EF0160001F0200A0EF0119000F02EF083
:041150008EF90FFE07
:0A09B600CEF96EF0109000F04EF044
:1009C000170001F0200A0EF0119000F02EF08EF9C1
:0209D0000FFE18
:0A091600CEF96EF0109000F04EF0E4
:10092000180001F0200A0EF0119000F02EF08EF960
:020930000FFEB8
:0E093200CEF96EF0109000F04EF0190001F0BA
:0E094000200A0EF0119000F02EF08EF90FFE3E
:02094E00CEF9E0
:100950006EF0109000F04EF01A0001F0200A0EF038
:0A096000119000F02EF08EF90FFE4A
:0A10E600CEF96EF0109000F04EF00D
:1010F0001B0001F0200A0EF0119000F02EF08EF986
:021100000FFEE0
:0E107200CEF96EF0109000F04EF01C0001F070
:0E108000200A0EF0119000F02EF08EF90FFEF7
:10018000CEF96EF0109000F04EF01D0001F0200A44
:0C0190000EF0119000F02EF08EF90FFE22
:04058C00CEF96EF046
:10059000109000F04EF01E0001F0200A0EF01190B5
:0805A00000F02EF08EF90FFEB1
:020008000211E3
:04000C008E1006004C
:10001000CC02E802561006009C01B8011E103A10EE
:1000200070110600CA100600060006005411BA112D
:1000300006000600560372030600060006000600CE
:100040002C044804060006000600060028030403EA
:1000500006000600060006008E031C11AC033811D2
:10006000B609160932094E090600E610060072109C
:080070008001060006008C056A
:060A2A0001F02E0C01F0AA
:100A3000E80400001190FEEF01F0D209AA000501C0
:100A40005EF000E05EF0A200EF015EF002E05EF01A
:100A5000A202EF03400001F0661208E104CE01F0AB
:100A6000AA0301F0E8041090FEEF0170F8C800003E
:100A70001190FEEF01F0D209AA0005015EF04100DD
:100A800000015EF0B000EF015EF002E05EF0A8024F
:100A9000EF03400001F0640408E104CE01F0AA0372
:100AA00001F0E8041090FEEF0170F8C81090B0EF6C
:040AB000DEC8FFCECF
:0804E8005A0011900EF081A0F2
:0C04F0000EF0FAC9A50011900EF01FFEDE
:0203AA001FFE34
:020C2E00CEF8FE
:100C300080A02AF0A2A02AF0B0A02AF0E0A02AF01A
:100C4000F2A02AF0000011902CF011902EF01190DB
:100C50002FF001F06A0901F02C0701F02A0B01F0D6
:100C6000C80301F0AA1000001190E0F81190E1F81B
:100C700092A0E1F880A0E1F8D2A0E2F8F2A0E2F8B8
:100C800082A0E3F801F0840501F0B40A000011909D
:100C900017F0119016F0119015F0119014F01190BA
:100CA00013F0119012F0119011F0119010F01190BA
:100CB0001FF011901EF011901DF011901CF011907A
:100CC0001BF011901AF0119019F0119018F0B2A0C9
:100CD00017F0440203030F0001F0FC04B0020D03FF
:100CE0000C0001F0FC04F0A012F0F0A01AF080A0BB
:100CF00014F001F08805030011900FF001F0E804F2
:100D00000D0011904EEF0A0011904FEF0D00119061
:100D100065EF0A00119066EF0D00119073EF0A0065
:100D2000119074EF0D0011908AEF0A0011908BEF73
:100D30000D001190A0EF0A001190A1EF00004EF0FD
:100D400040021F03010001F0F00702E14C00010125
:100D50005EF040021F03020001F0BC0502E101F059
:100D6000560100001190FFEF01F00E0B9E000D01E7
:100D70005EF00EE24200EF0101F02E0502E104CE2A
:100D800001F0AA0301F0E8041090FFEF0170F8C829
:020D90008EF2E1
:020D9E00CEF88D
:100DA00001F0D40101001190FFEF01F020038EF259
:0605AA00CEF801F0BC0DCB
:0C05B00001001190FEEF01F020038EF21C
:0C0DB000CEF801F0BC0D01F020038EF223
:080320000100119031EF1FFEF6
:0403440000F0D401F0
:0610AA0082A002F092A0FA
:1010B00002F0B0A002F0A2A002F090A003F080A085
:0A10C00003F0F0A003F008ED1FFE9E
:06096A0082A051F292A0F0
:1009700051F2A2A051F280A053F280A052F290A0B6
:1009800053F290A052F2A0A053F2A0A052F282A083
:1009900055F282A054F292A055F292A054F2A2A075
:1009A00055F2A2A054F282A050F292A050F2A2A05E
:0609B00050F200F0E80423
:04072C0082A059F25C
:1007300092A059F2A2A059F2B2A059F2C2A059F265
:10074000D2A059F2E2A059F2F2A059F280A05BF2D5
:1007500080A05AF290A05BF290A05AF2A0A05BF2A7
:10076000A0A05AF2B0A05BF2B0A05AF2C0A05BF217
:10077000C0A05AF2D0A05BF2D0A05AF2E0A05BF287
:10078000E0A05AF2F0A05BF2F0A05AF282A05DF273
:1007900082A05CF292A05DF292A05CF2A2A05DF257
:1007A000A2A05CF2B2A05DF2B2A05CF2C2A05DF2C7
:1007B000C2A05CF2D2A05DF2D2A05CF2E2A05DF237
:1007C000E2A05CF2F2A05DF2F2A05CF282A058F22C
:1007D00092A058F2A2A058F2B2A058F2C2A058F2C9
:1007E000D2A058F2E2A058F2F2A058F200F0E804C9
:060B2A0082A061F292A01E
:100B300061F2A2A061F2B2A061F2C2A061F2D2A001
:100B400061F2E2A061F2F2A061F280A063F280A003
:100B500062F290A063F290A062F2A0A063F2A0A063
:100B600062F2B0A063F2B0A062F2C0A063F2C0A0D3
:100B700062F2D0A063F2D0A062F2E0A063F2E0A043
:100B800062F2F0A063F2F0A062F282A065F282A0AD
:100B900064F292A065F292A064F2A2A065F2A2A013
:100BA00064F2B2A065F2B2A064F2C2A065F2C2A083
:100BB00064F2D2A065F2D2A064F2E2A065F2E2A0F3
:100BC00064F2F2A065F2F2A064F282A060F292A058
:100BD00060F2A2A060F2B2A060F2C2A060F2D2A065
:0E0BE00060F2E2A060F2F2A060F200F0E80421
:0803C80082A069F292A069F223
:1003D000A2A069F2B2A069F2C2A069F2D2A069F249
:1003E00080A06BF280A06AF290A06BF290A06AF2FB
:1003F000A0A06BF2A0A06AF2B0A06BF2B0A06AF26B
:10040000C0A06BF2C0A06AF2D0A06BF2D0A06AF2DA
:1004100082A068F292A068F2A2A068F2B2A068F28C
:0C042000C2A068F2D2A068F200F0E8046C
:02000200D61115
:0800880048656C6C6F20576F96
:10009000726C64212020494E505F30303030303057
:1000A00030305F30303030303030300000494E502A
:1000B00020526563656976656400004F555420528F
:1000C000656365697665642020202020202020203B
:1000D00000004D4C3631305131313220436F6E6E5D
:1000E00065637465642100005001500250035F078E
:1000F0004E414D453A200000000000000000000085
:1001000000000000000000000000000000000000EF
:1001100000000000000000000000000000000000DF
:1001200000000000000000000000000000000000CF
:0701300000000000000000C8
:04014C00802500000A
:06015000000200000000A7
:0101370000C7
:02000000C2EE4E
:02000400D81111
:0A11D60001CEFFCE00E000E200E4CD
:1011E00000E60008E0098AF0579088E8F079FCC131
:1011F0000078FAC15A0CA50D119C0EF081A00EF0DA
:10120000FBC9119D0EF0000A0CF04201AF90529004
:10121000FF7002C8FF7120C9AF905292AF905294F4
:10122000AF905096AF90509780E4F0C901A20BC8E0
:1012300001A409C86F90029882E07F90239882E20F
:10124000FEE4F8C8E3CE6F90009881E07F9021988B
:1012500081E2FFE4F8C8DACE01F00A000000119044
:0612600000F000F02A0A74
:02000A001FFED7
:08014200780032EFCA00000052
:02014A00FFFFB5
:107FE000FFFFFFFFFFFFFFFFFFFFFFFFFFFFFFFFA1
:107FF000FFFFFFFFFFFFFFFFFFFFFFFFFFFFFFFF91
:0405BC00CEF85EFE19
:1005C0001AAE5EFC5EF85EF4008800700FC9017020
:1005D00002C800F0E206027002C800F0EA067FE0FE
:1005E0001EF41EF81EFCEAA11EFE8EF20000800121
:1005F00000E244BC6EF0C29002B26EF001F0000A5C
:1006000004E12EF0007000510052005302C87EE059
:10061000E7CEFFE005F404D0037002C37DE0E0CE36
:1006200005D0027002C37CE0DBCE06D0017002C3AD
:100630007BE0D6CE07D0017002C37AE0D1CE08D0DD
:10064000017002C379E0CCCE00E01390F2EF13907A
:10065000F4EF1390F6EF1390F8EF1190FAEF82A0F9
:1006600091F201F00207109092F20089F9200089BE
:1006700080801A909081038110801030119092F246
:10068000C2A092F2109093F200898020008944BCAD
:1006900005D02A9004D1038106D04A90138007D157
:1006A0005A91038108D06A9013809081038111913F
:1006B00093F2119494F2109095F20089F020008941
:1006C00050800F2090810381119195F282A096F2C3
:1006D00092A096F2A2A096F2B2A096F200E000F0EC
:1006E000E00500E001E200F0F20525F000E27B9376
:1006F0007B927B917A903B933B923B913A9000F0B6
:02070000F20500
:02052E005EFE6F
:100530001AAE5EF805F882A091F282A092F21390B2
:10054000F2EF1392F4EF00E01390F6EF42B0139045
:10055000F8EF00001190FAEF007200530FC3809083
:10056000119090F21290F2EF81E01390F2EF12905E
:10057000F6EF81E01390F6EF80A091F21EF8EAA169
:040580001EFE1FFE3E
:0C01D400CEF85EFC109092F2012000704A
:1001E00034C81290F4EF1292F6EF27F019C910906C
:1001F00096F20820007012C8129CF2EFC090119085
:1002000090F2C5F081E01390F2EF25F081E01390B9
:10021000F6EF80A091F200E01EFC8EF27FE0FCCEB3
:10022000109091F2012000700EC81290F8EF09C9E9
:1002300005FC00E01390F8EF1092FAEF1290F4EF43
:10024000C3F001E0E9CE7EE0E7CE1290F4EF129227
:10025000F6EF27F02CC9109096F20720008210903C
:10026000FAEF23801190FAEF82A096F292A096F214
:10027000A2A096F2129CF2EF109090F2C190129010
:10028000F2EF81E01390F2EF1290F6EF81E013901D
:10029000F6EF01A209C81290F4EF1292F6EF27F0E0
:1002A00006C900E000F01802010001F048031290B6
:1002B000F8EF09C905FC00E01390F8EF1092FAEF8F
:0C02C0001290F4EFC3F001E000F018020F
:020B0E0082A0C3
:100B100091F200E01390F2EF1390F4EF1390F6EFE0
:0A0B20001390F8EF1190FAEF1FFE9A
:0803480000821090D8EE238022
:060350001190D8EE1FFE23
:0A01560092A059F290A05AF290A076
:100160005BF292A05CF290A05DF280A059F280A0B8
:100170005AF282A05BF282A05CF282A05DF21FFEC6
:0E07020092A059F292A05AF292A05BF292A03D
:100710005CF292A05DF282A059F282A05AF282A00D
:0C0720005BF282A05CF282A05DF21FFE82
:080138000000000000000000BF
:020140000000BD
:100A0000CEF97EF06EF85EFC1AACCBF01200549872
:100A1000349001F08C1135901EFC2EF83EF08EF3D0
:04118C00200D00E44E
:1011900000E61B971B961B951B941B931B921B91A0
:1011A0001A9087F4A586B58705C188849985A98694
:0A11B000B98700A0FF1DEDC81FFE67
:0C0D9200CEF86EF801F0EE0B2EF88EF299
:020BEE00007392
:100BF00002C829F01BCE6EF405F825FA1D981C9941
:100C00001D9A1C9B007BFAC8A9F88084208844F8B0
:100C1000308644F6618907F803C328883989FF14B0
:0E0C20008880998105F2408000012EF41FFEAD
:00000001FF
