:0A083600CEF85EFE1AAE6EF86EF406
:10084000008825FA44D0017006C37FE02EF42EF80C
:10085000EAA11EFE8EF2007805C850040005640669
:10086000000707CE017802C900F0500914E4900691
:100870000107A5F045F201F0B42467F002C20000C0
:100880002ECE45F02B912A9046F006F046F00A0253
:1008900029F005F2A5F001F0B42467F002C20100CE
:1008A0001ECE45F046F046F02B912A900A0229F020
:1008B00005F2A5F001F0B42467F002C202000FCEE9
:1008C00045F046F046F02B912A9046F00A0229F0B6
:1008D00005F2A5F001F0B42467F03DC203000082E8
:1008E00000001190ECEE00E01390EEEE1390F0EEAD
:1008F0001390F2EE1390F4EE1390F6EE1390F8EEE0
:100900001190FAEE1190FBEE82A0A4F2D2A059F25F
:10091000D2A05AF2D0A05BF2D2A05CF2D0A05DF2DD
:10092000E2A059F2E2A05AF2E0A05BF2E2A05CF28F
:10093000E0A05DF280801A9020812A91038144D04A
:100940004A90138001301190A4F200E000F04C08AE
:0C0950007EE000F04C087DE000F04C0858
:0629CA005EFE1AAE5EF88D
:1029D000008800001190ECEE1392EEEE42B01390DE
:1029E000F0EE44B01390F2EE46B01390F4EE00E037
:1029F0001390F6EE48B01390F8EE00001190FAEE46
:102A00001190FBEE1290F0EE08C81290F4EE05C89B
:102A100001E01EF8EAA11EFE1FFE1090A5F20120A3
:102A2000017002C87FE0F5CE01001190FBEE8080BE
:102A30001A901190A1F201001190A3F200E0E9CEEA
:0604AA005EFE1AAE5EF8D2
:1004B000008801001190ECEE1392EEEE42B0139022
:1004C000F0EE44B01390F2EE46B01390F4EE00E07C
:1004D0001390F6EE48B01390F8EE00001190FAEE8B
:1004E0001190FBEE1290F0EE08C81290F4EE05C8E1
:1004F00001E01EF8EAA11EFE1FFE1090A5F20120E9
:10050000017002C87FE0F5CE01001190FBEE129061
:10051000F0EE04C880801A90013002CE80801A90DC
:0E0520001190A1F201001190A3F200E0E2CED2
:0224DE00CEF836
:1024E0005EFC5EF41090A5F200811090FBEE0EC928
:1024F00001701CC9027002C800F00026037002C8F7
:1025000000F0A026047002C800F0F4261290F8EE45
:1025100009C905F400E01390F8EE1092FAEE12905B
:10252000F6EE43F001E01EF41EFC8EF21080042053
:10253000047017C800001190FBEE02001190FAEE33
:1025400000001190A3F21290F8EE09C905F400E022
:102550001390F8EE1092FAEE1290F6EE43F001E0CE
:10256000E2CE1080022002700AC800001190FBEE3B
:1025700001001190FAEE02001190A3F23ECE1290EB
:10258000F0EE15C902001190FBEE129CEEEEC09029
:102590001190A2F2C5F081E01390EEEE1290F0EEF1
:1025A000FFE01390F0EE01001190A3F226CE109000
:1025B000ECEE0FC904001190FBEE01041290F4EE52
:1025C000FFE01292F6EE27F001C881041194A3F205
:1025D00014CE03001190FBEE129CF2EEC09011900D
:1025E000A2F2C5F081E01390F2EE1290F6EE81E0D7
:1025F0001390F6EE01001190A3F200E000F0262502
:102600001080022002700BC800001190FBEE010048
:102610001190FAEE02001190A3F200F09A261290A7
:10262000F0EE12C9129CEEEEC0901190A2F2C5F02D
:1026300081E01390EEEE1290F0EEFFE01390F0EEDA
:1026400001001190A3F229CE1290F4EE07C8000009
:102650001190FBEE02001190A3F21FCE1090ECEE51
:1026600008C901001190FBEE80A0A1F2A0A0A3F286
:1026700014CE03001190FBEE129CF2EEC09011906C
:10268000A2F2C5F081E01390F2EE1290F6EE81E036
:102690001390F6EE01001190A3F200E000F0262561
:1026A00010800220027008C800001190FBEE0100AB
:1026B0001190FAEE020019CE1290F4EE1292F6EE9C
:1026C00027F00FC9129CF2EEC0901190A2F2C5F053
:1026D00081E01390F2EE25F081E01390F6EE010018
:1026E00004CE00001190FBEE02001190A3F200E076
:0826F00000F02625129CF2EE19
:0826F8001090A0F2C1901290B5
:10270000F2EE81E01390F2EE1290F6EE81E013907B
:10271000F6EE1290F4EE1292F6EE27F008C90104DC
:10272000FFE027F001C881041194A3F206CE000057
:102730001190FBEE02001190A3F200E000F02625BC
:080A180082A0A3F2000011907E
:100A2000ECEE00E01390EEEE1390F0EE1390F2EE89
:100A30001390F4EE1390F6EE1390F8EE1190FAEE98
:060A40001190FBEE1FFE09
:08007800000000000000000080
:08008000000000000000000078
:06219A005EF4000011904C
:1021A00011F0119012F0119013F0119014F01190A1
:1021B00015F0119016F0119017F0119018F0119081
:1021C00019F011901AF011901BF011901CF0119061
:1021D0001DF011901EF011901FF000E445F046F044
:1021E000EE02050309A240EE81E41F740055F6C516
:0421F0001EF41FFEBC
:0205CE0008ED36
:0205D0001FFE0C
:0405CA00F7EB1FFE2E
:0E0542006EF8008825FA1F7003C17FE02EF8C6
:100550001FFE25F206C98080000106F009AA40EEC0
:1005600007CE8080000106F0EE02050309A240EEEE
:0405700000E0EDCEEC
:020006000FFEEB
:0205EE001FFEEE
:0A0A6600000106F008A040EE02F0C7
:0A286600CEFF6EF0109000F04EF06F
:10287000000001F0660A0EF0119000F02EF08EFFBD
:1027B000CEF96EF0109000F04EF0010001F0660AC4
:0C27C0000EF0119000F02EF08EF90FFECC
:0E031200CEF96EF0109000F04EF0020001F0F7
:0E032000660A0EF0119000F02EF08EF90FFE1E
:02032E00CEF906
:100330006EF0109000F04EF0030001F0660A0EF02F
:0A034000119000F02EF08EF90FFE70
:08277800CEF96EF0109000F0A4
:102780004EF0040001F0660A0EF0119000F02EF0F9
:042790008EF90FFEB1
:0E01E200CEF96EF0109000F04EF0050001F026
:0E01F000660A0EF0119000F02EF08EF90FFE50
:0201FE00CEF938
:100200006EF0109000F04EF0060001F0660A0EF05D
:0A021000119000F02EF08EF90FFEA1
:10274000CEF96EF0109000F04EF0070001F0660A2E
:0C2750000EF0119000F02EF08EF90FFE3C
:04275C00CEF96EF054
:10276000109000F04EF0080001F0660A0EF0119093
:0827700000F02EF08EF90FFEBF
:0C28D400CEF96EF0109000F04EF00900FC
:1028E00001F0660A0EF0119000F02EF08EF90FFE46
:02282E00CEF9E1
:102830006EF0109000F04EF00A0001F0660A0EF003
:0A284000119000F02EF08EF90FFE4B
:0828B800CEF96EF0109000F063
:1028C0004EF00B0001F0660A0EF0119000F02EF0B1
:0428D0008EF90FFE70
:02291E00CEF9F0
:102920006EF0109000F04EF00C0001F0660A0EF010
:0A293000119000F02EF08EF90FFE5A
:04039C00CEF96EF038
:1003A000109000F04EF00D0001F0660A0EF0119072
:0803B00000F02EF08EF90FFEA3
:0803B800CEF96EF0109000F088
:1003C0004EF00E0001F0660A0EF0119000F02EF0D3
:0403D0008EF90FFE95
:0E047200CEF96EF0109000F04EF00F0001F089
:0E048000660A0EF0119000F02EF08EF90FFEBD
:02048E00CEF9A5
:100490006EF0109000F04EF0100001F0660A0EF0C1
:0A04A000119000F02EF08EF90FFE0F
:02036E00CEF9C6
:100370006EF0109000F04EF0110001F0660A0EF0E1
:0A038000119000F02EF08EF90FFE30
:06034A00CEF96EF01090E8
:1003500000F04EF0120001F0660A0EF0119000F06D
:060360002EF08EF90FFEE5
:0C03D400CEF96EF0109000F04EF0130017
:1003E00001F0660A0EF0119000F02EF08EF90FFE6B
:10288000CEF96EF0109000F04EF0140001F0660AE0
:0C2890000EF0119000F02EF08EF90FFEFB
:0E03F200CEF96EF0109000F04EF0150001F004
:0E040000660A0EF0119000F02EF08EF90FFE3D
:04289C00CEF96EF013
:1028A000109000F04EF0160001F0660A0EF0119044
:0828B00000F02EF08EF90FFE7E
:0409FC00CEF96EF0D2
:100A0000109000F04EF0170001F0660A0EF0119001
:080A100000F02EF08EF90FFE3C
:04095C00CEF96EF072
:10096000109000F04EF0180001F0660A0EF01190A1
:0809700000F02EF08EF90FFEDD
:08097800CEF96EF0109000F0C2
:100980004EF0190001F0660A0EF0119000F02EF002
:040990008EF90FFECF
:0C099400CEF96EF0109000F04EF01A004A
:1009A00001F0660A0EF0119000F02EF08EF90FFEA5
:06284A00CEF96EF01090C3
:1028500000F04EF01B0001F0660A0EF0119000F03F
:062860002EF08EF90FFEC0
:0C279400CEF96EF0109000F04EF01C002A
:1027A00001F0660A0EF0119000F02EF08EF90FFE87
:0A01C600CEF96EF0109000F04EF03C
:1001D0001D0001F0660A0EF0119000F02EF08EF96D
:0201E0000FFE10
:0E05D200CEF96EF0109000F04EF01E0001F019
:0E05E000660A0EF0119000F02EF08EF90FFE5C
:02000800662868
:04000C00B027060013
:1000100012032E0378270600E201FE0140275C2729
:10002000D42806002E28060006000600B8281E293F
:10003000060006009C03B803060006000600060042
:1000400072048E0406000600060006006E034A03D2
:100050000600060006000600D4038028F2039C2850
:10006000FC095C097809940906004A2806009427CF
:08007000C60106000600D205DE
:100A700001F0142301F02E0500E0000209927EEE41
:100A800081E016700051F9C500001190FFEF01F0F0
:100A9000F421C00024015EF015E27E00EE0101F0B9
:100AA000EC2702E104CE01F0F00301F02E051090D6
:100AB000FFEF0170F8C810907EEE417002C900F09F
:100AC000680B10907FEE437002C900F0680B109025
:100AD00080EE4B7002C900F0680B00001190FFEF30
:100AE000109081EE32702CC801F0F421C000240176
:100AF0005EF016E24600EF0101F0740502E104CE5B
:100B000001F0F00301F02E051090FFEF0170F8C81E
:100B100000001190FFEF01F0F421C00024015EF00D
:100B200016E25C00EF0101F0740502E104CE01F071
:100B3000F00301F02E051090FFEF0170F8C814CEFD
:100B400001F0F421C00024015EF03EE27200EF01EA
:100B500001F0740502E104CE01F0F00301F02E056E
:100B60001090FFEF0170F8C810907EEE497002C936
:100B700000F07E0D10907FEE4E7002C900F07E0DE9
:100B8000109080EE437002C900F07E0D430011907A
:100B90000CEF119023EF04E448927EEED0124992BC
:0E0BA0007EEE2080017003C9000249927EEEB5
:020BAE0081E4E0
:100BB0000C740055F1C1109082EE012003C9F0A021
:100BC00061F202CEF2A061F2109083EE012003C91F
:100BD000E0A061F202CEE2A061F2109084EE01206A
:100BE00003C9D0A061F202CED2A061F2109085EECE
:100BF000012003C9C0A061F202CEC2A061F2109030
:100C000086EE012003C9B0A061F202CEB2A061F26B
:100C1000109087EE012003C9A0A061F202CEA2A02D
:100C200061F2109088EE012003C990A061F202CE1B
:100C300092A061F2109089EE012003C980A061F2B8
:100C400002CE82A061F2109061F27C9001203010FF
:100C500011900EEF109061F26C9001203010119005
:100C60000FEF109061F25C9001203010119010EFA6
:100C7000109061F24C9001203010119011EF109003
:100C800061F23C9001203010119012EF109061F24F
:100C90002C9001203010119013EF109061F21C90F5
:100CA00001203010119014EF109061F201203010EB
:100CB000119015EF109060F27C900120301011908F
:100CC00017EF109060F26C9001203010119018EF27
:100CD000109060F25C9001203010119019EF10908C
:100CE00060F24C900120301011901AEF109060F2D9
:100CF0003C900120301011901BEF109060F22C906E
:100D00000120301011901CEF109060F21C90012017
:100D1000301011901DEF109060F2012030101190F2
:100D20001EEF00001190FFEF01F0F421C00024013C
:100D30005EF017E20A00EF0101F0740502E104CE53
:100D400001F0F00301F02E051090FFEF0170F8C8DC
:100D500000001190FFEF01F0F421C00024015EF0CB
:100D60000EE22100EF0101F0740502E104CE01F072
:100D7000F00301F02E051090FFEF0170F8C81090FD
:100D80007EEE4F7002C900F0840F10907FEE557018
:100D900002C900F0840F109080EE437002C900F089
:100DA000840F4300119031EF04E448927EEED0129C
:100DB00049927EEE2080017003C9000249927EEEC6
:100DC00081E415740055F1C1109082EE012003C931
:100DD000F0A061F202CEF2A061F2109083EE012049
:100DE00003C9E0A061F202CEE2A061F2109084EEAD
:100DF000012003C9D0A061F202CED2A061F210900E
:100E000085EE012003C9C0A061F202CEC2A061F24A
:100E1000109086EE012003C9B0A061F202CEB2A00C
:060E200061F2109087EE64
:0A0E2600012003C9A0A061F202CE72
:100E3000A2A061F2109088EE012003C990A061F297
:100E400002CE92A061F2109089EE012003C980A029
:100E500061F202CE82A061F210908BEE012003C9F4
:100E6000F0A060F202CEF2A060F210908CEE0120B1
:100E700003C9E0A060F202CEE2A060F210908DEE15
:100E8000012003C9D0A060F202CED2A060F210907F
:100E90008EEE012003C9C0A060F202CEC2A060F2B3
:100EA00010908FEE012003C9B0A060F202CEB2A074
:100EB00060F2109090EE012003C9A0A060F202CE73
:100EC000A2A060F2109091EE012003C990A060F200
:100ED00002CE92A060F2109092EE012003C980A091
:100EE00060F202CE82A060F2109060F27C9001204D
:100EF000301011903CEF109060F26C900120301097
:100F000011903DEF109060F25C9001203010119034
:100F10003EEF109060F24C900120301011903FEFA6
:100F2000109060F23C9001203010119040EF109032
:100F300060F22C9001203010119041EF109060F27F
:100F40001C9001203010119042EF109060F20120AF
:100F50003010119043EF00001190FFEF01F0F421E9
:100F6000C00024015EF017E22F00EF0101F07405CC
:100F700002E104CE01F0F00301F02E051090FFEF26
:100F80000170F8C810907EEE497002C900F0C210DE
:100F900010907FEE4E7002C900F0C210109080EEEB
:100FA000427002C900F0C210420011900CEF119083
:100FB00023EF04E448927EEED01249927EEE208028
:100FC000017003C9000249927EEE81E40C74005561
:100FD000F1C1109082EE012003C9F0A059F202CEB7
:100FE000F2A059F2109087EE012003C9A0A059F297
:100FF00002CEA2A059F2109059F27C90012030103C
:1010000011900EEF780011900FEF119010EF1190EA
:1010100011EF119012EF109059F22C900120301026
:10102000119013EF7800119014EF119015EF1090BC
:1010300058F27C9001203010119017EF7800119039
:1010400018EF119019EF11901AEF11901BEF1090FB
:1010500058F22C900120301011901CEF7800119064
:101060001DEF11901EEF00001190FFEF01F0F42131
:02107000C000BE
:0E10720024015EF017E20A00EF0101F07405A0
:1010800002E104CE01F0F00301F02E051090FFEF15
:101090000170F8C800001190FFEF01F0F421C000CA
:1010A00024015EF00EE22100EF0101F0740502E17F
:1010B00004CE01F0F00301F02E051090FFEF017057
:1010C000F8C810907EEE4F7002C900F0BA1110906F
:1010D0007FEE557002C900F0BA11109080EE427098
:1010E00002C900F0BA114200119031EF04E44892B5
:1010F0007EEED01249927EEE2080017003C900027C
:1011000049927EEE81E415740055F1C1109082EE93
:10111000012003C9F0A059F202CEF2A059F21090BA
:1011200087EE012003C9A0A059F202CEA2A059F275
:1011300010908BEE012003C9F0A058F202CEF2A06D
:1011400058F2109090EE012003C9A0A058F202CEF0
:10115000A2A058F2109058F27C900120301011900B
:101160003CEF780011903DEF11903EEF11903FEF72
:10117000119040EF109058F22C90012030101190F7
:1011800041EF7800119042EF119043EF0000119071
:10119000FFEF01F0F421C00024015EF017E22F0000
:1011A000EF0101F0740502E104CE01F0F00301F05B
:1011B0002E051090FFEF0170F8C810907EEE497078
:1011C00002C900F0881310907FEE4E7002C900F043
:1011D0008813109080EE447002C900F08813440018
:1011E00011900CEF119023EF04E448927EEED012A0
:1011F00049927EEE2080017003C9000249927EEE82
:1012000081E40C740055F1C1109084EE012003C9F3
:10121000D0A069F202CED2A069F2109085EE012032
:1012200003C9C0A069F202CEC2A069F2109086EE96
:10123000012003C9B0A069F202CEB2A069F21090F9
:1012400087EE012003C9A0A069F202CEA2A069F234
:10125000109088EE012003C990A069F202CE92A0FE
:1012600069F2109089EE012003C980A069F202CED4
:1012700082A069F2780011900EEF11900FEF10909C
:1012800069F25C9001203010119010EF109069F21B
:101290004C9001203010119011EF109069F23C90A9
:1012A00001203010119012EF109069F22C90012063
:1012B0003010119013EF109069F21C900120301043
:1012C000119014EF109069F201203010119015EF79
:1012D0007800119017EF119018EF109068F25C9061
:1012E00001203010119019EF109068F24C900120FD
:1012F000301011901AEF109068F23C9001203010DD
:1013000011901BEF109068F22C900120301011907A
:101310001CEF109068F21C900120301011901DEF0E
:10132000109068F20120301011901EEF0000119013
:10133000FFEF01F0F421C00024015EF017E20A0083
:10134000EF0101F0740502E104CE01F0F00301F0B9
:101350002E051090FFEF0170F8C800001190FFEF0C
:1013600001F0F421C00024015EF00EE22100EF0143
:1013700001F0740502E104CE01F0F00301F02E0546
:101380001090FFEF0170F8C810907EEE4F7002C908
:1013900000F0341510907FEE557002C900F034153E
:1013A000109080EE447002C900F034154400119092
:1013B00031EF04E448927EEED01249927EEE208016
:1013C000017003C9000249927EEE81E41574005554
:1013D000F1C1109084EE012003C9D0A069F202CEC1
:1013E000D2A069F2109085EE012003C9C0A069F275
:1013F00002CEC2A069F2109086EE012003C9B0A00F
:1014000069F202CEB2A069F2109087EE012003C902
:10141000A0A069F202CEA2A069F2109088EE01208D
:1014200003C990A069F202CE92A069F2109089EEF1
:10143000012003C980A069F202CE82A069F2109057
:101440008DEE012003C9D0A068F202CED2A068F2CE
:0414500010908EEE7C
:0C145400012003C9C0A068F202CEC2A0B3
:1014600068F210908FEE012003C9B0A068F202CE9E
:10147000B2A068F2109090EE012003C9A0A068F21B
:1014800002CEA2A068F2109091EE012003C990A0B4
:1014900068F202CE92A068F2109092EE012003C989
:1014A00080A068F202CE82A068F2780011903CEF32
:1014B00011903DEF109068F25C9001203010119077
:1014C0003EEF109068F24C900120301011903FEFE9
:1014D000109068F23C9001203010119040EF109075
:1014E00068F22C9001203010119041EF109068F2BA
:1014F0001C9001203010119042EF109068F20120F2
:101500003010119043EF00001190FFEF01F0F42133
:10151000C00024015EF017E22F00EF0101F0740516
:1015200002E104CE01F0F00301F02E051090FFEF70
:101530000170F8C810907EEE497002C900F0E81DF5
:1015400010907FEE327002C900F0E81D109080EE1E
:10155000437002C900F0E81D109081EE547002C97A
:1015600000F0E81D109082EE587002C900F0E81DEE
:1015700000001190FFEF01F0F421C00024015EF0A3
:101580002EE29400EE0101F0EC2702E104CE01F01E
:10159000F00301F02E051090FFEF0170F8C8020073
:1015A0001190DBEE00001190DCEE109096EE2070B2
:1015B0000DC90CF0DBEE2FFE0CF0DCEE2FFE1090D0
:1015C000DBEE0001089094EE2070F3C81090DCEE82
:1015D00040CE037014C81090DBEE00011092DDEED7
:1015E000000328803981089094EED01000811A9170
:1015F00001813A9101812A911191EBEE21CE027085
:1016000012C81090DBEE00011092DDEE000328807E
:101610003981089094EED01000812A9101811A91AD
:101620001191EBEE0DCE1090DBEE00011092DDEE8D
:10163000000328803981089094EED0101190EBEED1
:101640001090DAEE1091EBEE11801190DAEE20801E
:10165000FF101190DDEE007002C300F0D2150CF007
:10166000DBEE2FFE000006CE0CF0DBEE2FFE10901E
:10167000DCEE01101190DCEE1090DBEE0001089022
:1016800094EE2070F1C81090DCEE40CE037014C8C8
:101690001090DBEE00011092DDEE0003288039810E
:1016A000089094EED01000811A9101813A91018145
:1016B0002A911191D4EE21CE027012C81090DBEE67
:1016C00000011092DDEE000328803981089094EE2D
:1016D000D01000812A9101811A911191D4EE0DCE82
:1016E0001090DBEE00011092DDEE000328803981BE
:1016F000089094EED0101190D4EE1090C2EE10919C
:10170000D4EE11801190C2EE2080FF101190DDEE1A
:10171000007002C300F08C160CF0DBEE2FFE000010
:1017200006CE0CF0DBEE2FFE1090DCEE01101190D7
:10173000DCEE1090DBEE0001089094EE2070F1C812
:101740001090DCEE40CE037014C81090DBEE000168
:101750001092DDEE000328803981089094EED010BD
:1017600000811A9101813A9101812A911191CEEE65
:1017700021CE027012C81090DBEE00011092DDEE57
:10178000000328803981089094EED01000812A91BE
:1017900001811A911191CEEE0DCE1090DBEE000179
:1017A0001092DDEE000328803981089094EED0106D
:1017B0001190CEEE1090D8EE1091CEEE11801190D7
:1017C000D8EE2080FF101190DDEE007002C300F013
:1017D00046170CF0DBEE2FFE000006CE0CF0DBEE21
:1017E0002FFE1090DCEE01101190DCEE1090DBEE7D
:1017F0000001089094EE2070F1C81090DCEE40CE0D
:10180000037014C81090DBEE00011092DDEE0003AF
:1018100028803981089094EED01000811A910181BE
:101820003A9101812A911191CFEE21CE027012C816
:101830001090DBEE00011092DDEE0003288039816C
:10184000089094EED01000812A9101811A91119193
:10185000CFEE0DCE1090DBEE00011092DDEE000316
:1018600028803981089094EED0101190CFEE10901E
:10187000D9EE1091CFEE11801190D9EE2080FF109B
:101880001190DDEE007002C300F000180CF0DBEEEA
:101890002FFE000006CE0CF0DBEE2FFE1090DCEEEB
:1018A00001101190DCEE1090DBEE0001089094EE38
:1018B0002070F1C81090DCEE40CE037014C8109078
:1018C000DBEE00011092DDEE0003288039810890E4
:1018D00094EED01000811A9101813A9101812A91F0
:1018E0001191C3EE21CE027012C81090DBEE000100
:1018F0001092DDEE000328803981089094EED0101C
:1019000000812A9101811A911191C3EE0DCE1090A0
:10191000DBEE00011092DDEE000328803981089093
:1019200094EED0101190C3EE1090D5EE1091C3EE4E
:1019300011801190D5EE2080FF101190DDEE007027
:1019400002C300F0BA180CF0DBEE2FFE000006CE4A
:101950000CF0DBEE2FFE1090DCEE01101190DCEEAF
:101960001090DBEE0001089094EE2070F1C810900A
:10197000DCEE40CE037014C81090DBEE0001109234
:10198000DDEE000328803981089094EED0100081AC
:101990001A9101813A9101812A911191C5EE21CECE
:1019A000027012C81090DBEE00011092DDEE000311
:1019B00028803981089094EED01000812A9101810D
:1019C0001A911191C5EE0DCE1090DBEE0001109230
:0219D000DDEE4A
:0E19D200000328803981089094EED010119007
:1019E000C5EE1090D6EE1091C5EE11801190D6EE96
:1019F0002080FF101190DDEE007002C300F074191A
:101A00000CF0DBEE2FFE000006CE0CF0DBEE2FFE1E
:101A10001090DCEE01101190DCEE1090DBEE000176
:101A2000089094EE2070F1C81090DCEE40CE037068
:101A300014C81090DBEE00011092DDEE0003288048
:101A40003981089094EED01000811A9101813A9169
:101A500001812A911191D0EE21CE027012C810900E
:101A6000DBEE00011092DDEE000328803981089042
:101A700094EED01000812A9101811A911191D0EE3B
:101A80000DCE1090DBEE00011092DDEE00032880F9
:101A90003981089094EED0101190D0EE1090E9EEBC
:101AA0001091D0EE11801190E9EE2080FF1011907E
:101AB000DDEE007002C300F02E1A0CF0DBEE2FFEFC
:101AC000000006CE0CF0DBEE2FFE1090DCEE0110D5
:101AD0001190DCEE1090DBEE0001089094EE207087
:101AE000F1C81090DCEE40CE037014C81090DBEE0D
:101AF00000011092DDEE000328803981089094EEF9
:101B0000D01000811A9101813A9101812A9111919D
:101B1000D1EE21CE027012C81090DBEE00011092BF
:101B2000DDEE000328803981089094EED01000810A
:101B30002A9101811A911191D1EE0DCE1090DBEE18
:101B400000011092DDEE000328803981089094EEA8
:101B5000D0101190D1EE1090EAEE1091D1EE1180DC
:101B60001190EAEE2080FF101190DDEE007002C3AC
:101B700000F0E81A0CF0DBEE2FFE000006CE0CF0B1
:101B8000DBEE2FFE1090DCEE01101190DCEE1090D9
:021B9000DBEE8A
:0E1B92000001089094EE2070F1C81090DCEE77
:101BA00040CE037014C81090DBEE00011092DDEE01
:101BB000000328803981089094EED01000811A919A
:101BC00001813A9101812A911191D2EE21CE0270C8
:101BD00012C81090DBEE00011092DDEE00032880A9
:101BE0003981089094EED01000812A9101811A91D8
:101BF0001191D2EE0DCE1090DBEE00011092DDEED1
:101C0000000328803981089094EED0101190D2EE14
:101C10001090DEEE1091D2EE11801190DEEE208059
:101C2000FF101190DDEE007002C300F0A21B0CF05B
:101C3000DBEE2FFE000006CE0CF0DBEE2FFE109048
:101C4000DCEE01101190DCEE1090DBEE000108904C
:101C500094EE2070F1C81090DCEE40CE037014C8F2
:101C60001090DBEE00011092DDEE00032880398138
:101C7000089094EED01000811A9101813A9101816F
:101C80002A911191D3EE21CE027012C81090DBEE92
:101C900000011092DDEE000328803981089094EE57
:101CA000D01000812A9101811A911191D3EE0DCEAD
:101CB0001090DBEE00011092DDEE000328803981E8
:101CC000089094EED0101190D3EE1090E8EE1091A1
:101CD000D3EE11801190E8EE2080FF101190DDEE20
:101CE000007002C300F05C1C0CF0DBEE2FFE000065
:101CF0001190DCEE1090D8EE1190E0EE1090D9EE3D
:101D00001190E1EE1090D5EE1190E2EE1090D6EE2B
:101D10001190E3EE1090E9EE1190E4EE1090EAEEEF
:101D20001190E5EE1090DEEE1190E6EE1090E8EEE8
:101D30001190E7EE00001190E8EE1190DEEE1190A8
:101D4000EAEE1190E9EE1190D6EE1190D5EE1190D9
:101D5000D9EE1190D8EE1190FEEF01F0180AF000C4
:101D600005015EF000E05EF0E000EE015EF0109034
:101D7000C2EE00015EF0E002EE031090DAEE01F038
:101D8000CA2908E104CE01F0F00301F02E051090FD
:101D9000FEEF0170F8C800001190DAEE1190C2EE6B
:101DA0001190DBEE000100020992E0EE0CF0DBEE98
:101DB0002FFE1090DBEE0870F5C100001190FFEFD0
:101DC00001F0F421C00024015EF015E2B000EF0143
:101DD00001F0740502E104CE01F0F00301F02E05DC
:101DE0001090FFEF0170F8C810907EEE497002C9A4
:101DF00000F0740A10907FEE327002C900F0740A8D
:101E0000109080EE437002C900F0740A109081EEC9
:101E1000527002C900F0740A109082EE587002C924
:101E200000F0740A00001190FFEF01F0F421C000EF
:101E300024015EF02EE29400EE0101F0EC2702E1B5
:101E400004CE01F0F00301F02E051090FFEF0170B9
:081E5000F8C802001190DBEE5E
:081E580000001190DCEE109077
:101E600096EE20700DC90CF0DBEE2FFE0CF0DCEED0
:101E70002FFE1090DBEE0001089094EE2070F3C866
:101E80001090DCEE40CE037014C81090DBEE000121
:101E90001092DDEE000328803981089094EED01076
:101EA00000811A9101813A9101812A911191EBEE01
:101EB00021CE027012C81090DBEE00011092DDEE10
:101EC000000328803981089094EED01000812A9177
:101ED00001811A911191EBEE0DCE1090DBEE000115
:101EE0001092DDEE000328803981089094EED01026
:101EF0001190EBEE1090DAEE1091EBEE1180119054
:101F0000DAEE2080FF101190DDEE007002C300F0C9
:101F1000861E0CF0DBEE2FFE000006CE0CF0DBEE92
:101F20002FFE1090DCEE01101190DCEE1090DBEE35
:101F30000001089094EE2070F1C81090DCEE40CEC5
:101F4000037014C81090DBEE00011092DDEE000368
:101F500028803981089094EED01000811A91018177
:101F60003A9101812A911191D4EE21CE027012C8CA
:101F70001090DBEE00011092DDEE00032880398125
:101F8000089094EED01000812A9101811A9111914C
:101F9000D4EE0DCE1090DBEE00011092DDEE0003CA
:101FA00028803981089094EED0101190D4EE1090D2
:101FB000C2EE1091D4EE11801190C2EE2080FF107D
:101FC0001190DDEE007002C300F0401F0CF0DBEE5C
:101FD0002FFE000006CE0CF0DBEE2FFE1090DCEEA4
:101FE00001101190DCEE1090DBEE0001089094EEF1
:101FF0002070F1C81090DCEE40CE037014C8109031
:10200000DBEE00011092DDEE00032880398108909C
:1020100094EED01000811A9101813A9101812A91A8
:0E2020001191C4EE21CE027012C81090DBEEBA
:02202E000001AF
:102030001092DDEE000328803981089094EED010D4
:1020400000812A9101811A911191C4EE0DCE109058
:10205000DBEE00011092DDEE00032880398108904C
:1020600094EED0101190C4EE1090D7EE1091C4EE03
:1020700011801190D7EE2080FF101190DDEE0070DE
:1020800002C300F0FA1F0CF0DBEE2FFE00001190EF
:10209000DCEE1190FEEF01F0180AF00005015EF091
:1020A0001090C2EE00015EF0C600EE015EF001E0AD
:1020B0005EF0D702EE031090DAEE01F0AA0408E118
:1020C00004CE01F0F00301F02E051090FEEF017038
:1020D000F8C81090C6EE1190E0EF1090C7EE119086
:1020E000E2EF1090C8EE1190E4EF1090C9EE11905D
:1020F000E6EF1090CAEE1190E8EF1090CBEE119041
:10210000EAEF1090CCEE1190ECEF1090CDEE119024
:10211000EEEF00001190FFEF01F0F421C000240168
:102120005EF017E2DA00EF0101F0740502E104CE7F
:1021300001F0F00301F02E051090FFEF0170F8C8D8
:1021400000001190DAEE1190C2EE1190D7EE1190CE
:0E215000DBEE000100020992C6EE0CF0DBEEA1
:02215E002FFE52
:102160001090DBEE0870F5C100001190FFEF01F058
:10217000F421C00024015EF015E2C500EF0101F07A
:10218000740502E104CE01F0F00301F02E05109079
:0A219000FFEF0170F8C800F0740AB8
:02052E005A0071
:1005300011900EF081A00EF0FAC9A50011900EF0F6
:020540001FFE9C
:0203F0001FFEEE
:0C231400CEF880A02AF0A2A02AF0B0A011
:102320002AF0E0A02AF0F2A02AF0000011902CF090
:1023300011902EF011902FF001F0B00901F072070A
:1023400001F0102201F00E0401F0CC2700001190E2
:10235000E0F81190E1F892A0E1F880A0E1F8D2A0B5
:10236000E2F8F2A0E2F882A0E3F801F0CA0501F079
:102370009A210000119017F0119016F0119015F0AD
:10238000119014F0119013F0119012F0119011F0BF
:10239000119010F011901FF011901EF011901DF08F
:1023A00011901CF011901BF011901AF0119019F07F
:1023B000119018F0B2A017F08A0203030F0001F089
:1023C0004205D20224030C0001F04205F0A012F0F5
:1023D000F0A01AF080A014F001F0CE0503001190D7
:1023E0000FF001F02E050D00119008EF0A0011907A
:1023F00009EF0D0011901FEF0A00119020EF0D0062
:1024000011902DEF0A0011902EEF0D00119044EF66
:102410000A00119045EF0D0011905AEF0A0011903B
:102420005BEF0D001190AEEF0A001190AFEF0D00C1
:10243000119070EF0A00119071EF0D001190C3EF31
:102440000A001190C4EF0D001190D8EF0A0011900E
:10245000D9EF0D001190EFEF0A001190F0EF00009E
:102460004EF040021F03010001F0360802E1920025
:1024700001015EF040021F03020001F0020602E1CA
:1024800001F09C0100001190FFEF01F0F421C00069
:1024900024015EF00EE2FC00EE0101F0740502E1A1
:1024A00004CE01F0F00301F02E051090FFEF017053
:0424B000F8C88EF2E8
:1024C000CEF801F01A0201001190FFEF01F066034F
:0224D0008EF28A
:1005F000CEF801F0DE2401001190FEEF01F0660359
:020600008EF278
:0C24D200CEF801F0DE2401F066038EF26B
:080366000100119093EE1FFE4F
:04038A0000F01A0263
:0427CC0082A002F0F5
:1027D00092A002F0B0A002F0A2A002F090A003F03C
:0C27E00080A003F0F0A003F008ED1FFE45
:1009B00082A051F292A051F2A2A051F280A053F273
:1009C00080A052F290A053F290A052F2A0A053F255
:1009D000A0A052F282A055F282A054F292A055F249
:1009E00092A054F2A2A055F2A2A054F282A050F21A
:0C09F00092A050F2A2A050F200F02E05E0
:0E07720082A059F292A059F2A2A059F2B2A0B0
:1007800059F2C2A059F2D2A059F2E2A059F2F2A055
:1007900059F280A05BF280A05AF290A05BF290A088
:1007A0005AF2A0A05BF2A0A05AF2B0A05BF2B0A0F7
:1007B0005AF2C0A05BF2C0A05AF2D0A05BF2D0A067
:1007C0005AF2E0A05BF2E0A05AF2F0A05BF2F0A0D7
:1007D0005AF282A05DF282A05CF292A05DF292A039
:1007E0005CF2A2A05DF2A2A05CF2B2A05DF2B2A0A7
:1007F0005CF2C2A05DF2C2A05CF2D2A05DF2D2A017
:100800005CF2E2A05DF2E2A05CF2F2A05DF2F2A086
:100810005CF282A058F292A058F2A2A058F2B2A0C4
:1008200058F2C2A058F2D2A058F2E2A058F2F2A0B8
:0608300058F200F02E0555
:1022100082A061F292A061F2A2A061F2B2A061F28A
:10222000C2A061F2D2A061F2E2A061F2F2A061F27A
:1022300080A063F280A062F290A063F290A062F2AC
:10224000A0A063F2A0A062F2B0A063F2B0A062F21C
:10225000C0A063F2C0A062F2D0A063F2D0A062F28C
:10226000E0A063F2E0A062F2F0A063F2F0A062F2FC
:1022700082A065F282A064F292A065F292A064F25C
:10228000A2A065F2A2A064F2B2A065F2B2A064F2CC
:10229000C2A065F2C2A064F2D2A065F2D2A064F23C
:1022A000E2A065F2E2A064F2F2A065F2F2A064F2AC
:1022B00082A060F292A060F2A2A060F2B2A060F2EE
:1022C000C2A060F2D2A060F2E2A060F2F2A060F2DE
:0422D00000F02E05E7
:02040E0082A0CA
:1004100069F292A069F2A2A069F2B2A069F2C2A048
:1004200069F2D2A069F280A06BF280A06AF290A07B
:100430006BF290A06AF2A0A06BF2A0A06AF2B0A04A
:100440006BF2B0A06AF2C0A06BF2C0A06AF2D0A0BA
:100450006BF2D0A06AF282A068F292A068F2A2A029
:1004600068F2B2A068F2C2A068F2D2A068F200F00E
:020470002E0557
:020002003A2999
:0800880048656C6C6F20576F96
:10009000726C64212020494E505F30303030303057
:1000A00030305F30303030303030300000494E502A
:1000B00020526563656976656400004F555420528F
:1000C000656365697665642020202020202020203B
:1000D00000004D4C3631305131313220436F6E6E5D
:1000E00065637465642100004669726D77617265AD
:1000F0002056657273696F6E3A2030310000506C83
:100100006561736520436C6F736520506F72742056
:10011000616E64206368616E676520546172676513
:1001200074204D435520756E646572204465766970
:100130006365204F7074696F6E73000049324354D9
:100140005820434D442052656365697665642100FB
:1001500000493243525820434D442052656365693B
:100160007665642100004932432D522058205820E2
:0D01700058205820582058205820580000D2
:0A01920080250000000200000000BC
:01017D000081
:020000003AEED6
:020004003C2995
:06293A0001CEFFCE00E01B
:1029400000E200E400E60008E0098AF0579088E819
:10295000F079FCC10078FAC15A0CA50D119C0EF05B
:1029600081A00EF0FBC9119D0EF0000A0CF0880149
:10297000AF905290FF7002C8FF7120C9AF90529281
:10298000AF905294AF905096AF90509780E4F0C9BA
:1029900001A20BC801A409C86F90029882E07F9041
:1029A000239882E2FEE4F8C8E3CE6F90009881E0BD
:1029B0007F90219881E2FFE4F8C8DACE01F00A00A6
:0A29C0000000119000F000F0700A12
:02000A001FFED7
:080188007800ECEE100100000C
:02019000FFFF6F
:107FE000FFFFFFFFFFFFFFFFFFFFFFFFFFFFFFFFA1
:107FF000FFFFFFFFFFFFFFFFFFFFFFFFFFFFFFFF91
:0E060200CEF85EFE1AAE5EFC5EF85EF4008876
:1006100000700FC9017002C800F02807027002C8FC
:1006200000F030077FE01EF41EF81EFCEAA11EFE5B
:100630008EF20000800100E244BC6EF0C29002B273
:100640006EF001F0460A04E12EF0007000510052F5
:10065000005302C87EE0E7CEFFE005F404D003704B
:1006600002C37DE0E0CE05D0027002C37CE0DBCEA9
:1006700006D0017002C37BE0D6CE07D0017002C362
:100680007AE0D1CE08D0017002C379E0CCCE00E090
:100690001390F2EF1390F4EF1390F6EF1390F8EF3E
:1006A0001190FAEF82A091F201F04807109092F2B7
:1006B0000089F920008980801A9090810381108040
:1006C0001030119092F2C2A092F2109093F2008931
:1006D0008020008944BC05D02A9004D1038106D033
:1006E0004A90138007D15A91038108D06A901380F1
:1006F00090810381119193F2119494F2109095F2EC
:100700000089F020008950800F2090810381119191
:1007100095F282A096F292A096F2A2A096F2B2A0D2
:1007200096F200E000F0260600E001E200F0380654
:1007300025F000E27B937B927B917A903B933B92F6
:080740003B913A9000F03806ED
:0C0574005EFE1AAE5EF805F882A091F25F
:1005800082A092F21390F2EF1392F4EF00E0139036
:10059000F6EF42B01390F8EF00001190FAEF0072FE
:1005A00000530FC38090119090F21290F2EF81E00F
:1005B0001390F2EF1290F6EF81E01390F6EF80A027
:0A05C00091F21EF8EAA11EFE1FFED4
:0427EC005EFE1AAEC5
:1027F00082A091F282A096F292A096F2A2A096F206
:1028000080A092F21390F2EF1392F4EF00E0139095
:10281000F6EF42B01390F8EF00001190FAEF00725B
:0E282000005302C380A091F2EAA11EFE1FFE2B
:06021A00CEF85EFC10901E
:1002200092F20120007034C81290F4EF1292F6EFAF
:1002300027F019C9109096F20820007012C8129C7D
:10024000F2EFC090119090F2C5F081E01390F2EFC0
:1002500025F081E01390F6EF80A091F200E01EFC03
:100260008EF27FE0FCCE109091F2012000700EC85B
:100270001290F8EF09C905FC00E01390F8EF109216
:10028000FAEF1290F4EFC3F001E0E9CE7EE0E7CEA2
:100290001290F4EF1292F6EF27F02CC9109096F21C
:1002A000072000821090FAEF23801190FAEF82A0CD
:1002B00096F292A096F2A2A096F2129CF2EF109003
:1002C00090F2C1901290F2EF81E01390F2EF129051
:1002D000F6EF81E01390F6EF01A209C81290F4EF57
:1002E0001292F6EF27F006C900E000F05E0201006E
:1002F00001F08E031290F8EF09C905FC00E013909D
:10030000F8EF1092FAEF1290F4EFC3F001E000F072
:020310005E028B
:0C21F40082A091F200E01390F2EF139033
:10220000F4EF1390F6EF1390F8EF1190FAEF1FFE32
:02038E000082EB
:0C03900010903AEE238011903AEE1FFE10
:04019C0092A059F2E2
:1001A00090A05AF290A05BF292A05CF290A05DF257
:1001B00080A059F280A05AF282A05BF282A05CF289
:0601C00082A05DF21FFEAB
:0807480092A059F292A05AF2AE
:1007500092A05BF292A05CF292A05DF282A059F2AC
:1007600082A05AF282A05BF282A05CF282A05DF2CB
:020770001FFE6A
:02017E0000007F
:08018000000000000000000077
:0A0A4600CEF97EF06EF85EFC1AACEB
:100A5000CBF012005498349001F0F02835901EFC31
:060A60002EF83EF08EF3BB
:1028F000200D00E400E61B971B961B951B941B9371
:102900001B921B911A9087F4A586B58705C1888410
:0E2910009985A986B98700A0FF1DEDC81FFE9E
:0C24B400CEF86EF801F0D4222EF88EF263
:0C22D400007302C829F01BCE6EF405F860
:1022E00025FA1D981C991D9A1C9B007BFAC8A9F819
:1022F0008084208844F8308644F6618907F803C357
:1023000028883989FF148880998105F2408000016E
:042310002EF41FFE8A
:00000001FF
