:10063000CEF882A003F092A003F0B0A002F0A2A036
:1006400002F082A002F092A002F090A003F0A2A01B
:1006500013F0010001F07C07A2A01BF0000001F0E4
:1006600076046200000101F04E0701F0EC09B1A030
:100670001BF0FDC901F0EA02A2A01BF080A003F06C
:020680008EF2F8
:02096E005EF435
:100970000000119011F0119012F0119013F01190ED
:1009800014F0119015F0119016F0119017F01190CD
:1009900018F0119019F011901AF011901BF01190AD
:1009A0001CF011901DF011901EF011901FF000E44A
:1009B00045F046F02E02060309A2B2E781E41F7457
:0809C0000055F6C51EF41FFEF0
:0406040008ED1FFEE0
:04060000F7EB1FFEF7
:080578006EF8008825FA1F70DF
:1005800003C17FE02EF81FFE25F206C9808000011E
:1005900006F009AAB2E707CE8080000106F02E021D
:0A05A000060309A2B2E700E0EDCE69
:020006000FFEEB
:02062E001FFEAD
:0A07A200000106F008A0B2E702F023
:060B3A00CEFF6EF01090EA
:100B400000F04EF0000001F0A2070EF0119000F04E
:040B50002EF08EFFF6
:080AC800CEF96EF0109000F071
:100AD0004EF0010001F0A2070EF0119000F02EF090
:040AE0008EF90FFE7E
:04015C00CEF96EF07A
:10016000109000F04EF0020001F0A2070EF0119086
:0801700000F02EF08EF90FFEE5
:08017800CEF96EF0109000F0CA
:100180004EF0030001F0A2070EF0119000F02EF0E7
:040190008EF90FFED7
:080A8800CEF96EF0109000F0B1
:100A90004EF0040001F0A2070EF0119000F02EF0CD
:040AA0008EF90FFEBE
:0C012400CEF96EF0109000F04EF00500D7
:1001300001F0A2070EF0119000F02EF08EF90FFEE4
:10014000CEF96EF0109000F04EF0060001F0A2071C
:0C0150000EF0119000F02EF08EF90FFE62
:0C0A3400CEF96EF0109000F04EF00700BC
:100A400001F0A2070EF0119000F02EF08EF90FFECB
:040A6C00CEF96EF061
:100A7000109000F04EF0080001F0A2070EF0119067
:080A800000F02EF08EF90FFECC
:0A0BB600CEF96EF0109000F04EF042
:100BC000090001F0A2070EF0119000F02EF08EF94E
:020BD0000FFE16
:060AFA00CEF96EF0109031
:100B000000F04EF00A0001F0A2070EF0119000F084
:060B10002EF08EF90FFE2D
:060B9A00CEF96EF0109090
:100BA00000F04EF00B0001F0A2070EF0119000F0E3
:060BB0002EF08EF90FFE8D
:060C6A00CEF96EF01090BF
:100C700000F04EF00C0001F0A2070EF0119000F011
:060C80002EF08EF90FFEBC
:0C024400CEF96EF0109000F04EF00D00AE
:1002500001F0A2070EF0119000F02EF08EF90FFEC3
:10026000CEF96EF0109000F04EF00E0001F0A207F3
:0C0270000EF0119000F02EF08EF90FFE41
:04041C00CEF96EF0B7
:10042000109000F04EF00F0001F0A2070EF01190B6
:0804300000F02EF08EF90FFE22
:02043E00CEF9F5
:100440006EF0109000F04EF0100001F0A2070EF0D8
:0A045000119000F02EF08EF90FFE5F
:1001B000CEF96EF0109000F04EF0110001F0A207A1
:0C01C0000EF0119000F02EF08EF90FFEF2
:0C019400CEF96EF0109000F04EF012005A
:1001A00001F0A2070EF0119000F02EF08EF90FFE74
:0C02A400CEF96EF0109000F04EF0130048
:1002B00001F0A2070EF0119000F02EF08EF90FFE63
:0C0B5400CEF96EF0109000F04EF014008E
:100B600001F0A2070EF0119000F02EF08EF90FFEAA
:0202CE00CEF967
:1002D0006EF0109000F04EF0150001F0A2070EF045
:0A02E000119000F02EF08EF90FFED1
:020B7E00CEF9AE
:100B80006EF0109000F04EF0160001F0A2070EF08B
:0A0B9000119000F02EF08EF90FFE18
:0A072600CEF96EF0109000F04EF0D6
:10073000170001F0A2070EF0119000F02EF08EF9D4
:020740000FFEAA
:1006B000CEF96EF0109000F04EF0180001F0A20795
:0C06C0000EF0119000F02EF08EF90FFEED
:0806E800CEF96EF0109000F055
:1006F0004EF0190001F0A2070EF0119000F02EF05C
:040700008EF90FFE61
:0C070400CEF96EF0109000F04EF01A00DC
:1007100001F0A2070EF0119000F02EF08EF90FFEFE
:0A0B1600CEF96EF0109000F04EF0E2
:100B20001B0001F0A2070EF0119000F02EF08EF9DC
:020B30000FFEB6
:0C0AA400CEF96EF0109000F04EF01C0037
:100AB00001F0A2070EF0119000F02EF08EF90FFE5B
:0E00E200CEF96EF0109000F04EF01D0001F00F
:0E00F000A2070EF0119000F02EF08EF90FFE18
:08060800CEF96EF0109000F035
:100610004EF01E0001F0A2070EF0119000F02EF037
:040620008EF90FFE42
:080008003A0B0600C80A0600CD
:100010005C017801880A060024014001340A6C0A58
:10002000B60B0600FA0A0600060006009A0B6A0CD8
:1000300006000600440260020600060006000600F4
:100040001C043E040600060006000600B0019401F0
:100050000600060006000600A402540BCE027E0B2A
:100060002607B006E80604070600160B0600A40AD9
:10007000E20006000600080606000600060006006C
:10032000CEF882A061F280A062F280A063F282A087
:1003300064F280A065F292A061F290A062F290A0B7
:1003400063F292A064F290A065F2A2A061F2A0A074
:1003500062F2A0A063F2A2A064F2A0A065F282A063
:1003600059F280A05AF280A05BF280A05CF282A0D9
:100370005DF292A059F290A05AF290A05BF290A088
:100380005CF292A05DF2A2A059F2A0A05AF2A0A045
:100390005BF2A0A05CF2A2A05DF27FE001F0480752
:1003A000010001F0CC04010001F0DC09000001F0C3
:1003B000F00201F0700B01F0860C01F020077FE0E5
:1003C00001F02E0A010001F0FE00010001F0500AC8
:1003D000000001F010037FE001F0D609010001F0F8
:1003E000F809010001F01E0A000001F060047FE03E
:1003F00001F0D009010001F08A06010001F0E40AD1
:10040000000001F000031FE01390F0E700E01390FC
:0C041000F6E71390F4E701F0D4018EF23F
:08075800CEF882A017F982A07F
:1007600027F982A037F982A073F901F0820601F01F
:0C077000320B01F0C00A01F0AA058EF265
:0406CC00CEF882A042
:1006D00017F982A027F982A037F901F0820601F00C
:0806E000320B01F0C00A8EF29A
:0809C80082A073F900F0AA05FA
:1002300080A017F980A027F980A037F980A073F972
:020240001FFE9F
:0E02C00080A017F980A027F980A037F91FFE53
:0607420080A073F91FFE08
:0C01D400CEF81290F4E706F008A08800B6
:1001E00001F05A041290F0E706F008A0880001F030
:1001F00038041290F6E706F008A0880001F07004B9
:100200001290F4E706F008A0880001F0F4051290BF
:10021000F0E706F008A0880001F0FA051290F6E772
:1002200006F008A0880001F0720501F0F40A8EF2D1
:08008800000042088410C618B4
:1000900008214A298C31CE391042524A9452D65AFC
:1000A00018635A6B9C73DE7B2084628CA494E69C5C
:1000B00028A56AADACB5EEBD30C672CEB4D6F6DEBC
:0800C00038E77AEFBCF7FFFFFF
:0407AC0001F0F20462
:1007B00001F0CC011090FEE702C801F0B804A1A03E
:1007C00001F002C900F034091090FAE700010302B9
:1007D00029F005F200710CC8208002C800F04E0913
:1007E000017202C800F05609027202C800F06209E4
:1007F00001F058071090FDE7017002C900F04A09A6
:100800001090FAE7097003C800001190FAE71290FF
:10081000F8E70170005114C81290F6E71F700051FC
:1008200004C802E01390F8E70BCE1FE01390F0E746
:100830001290F6E781E01390F6E700E01390F4E7FA
:100840001290F8E70270005110C81290F0E704C847
:1008500003E01390F8E709CEFFE01390F0E71FE004
:100860001390F6E700E01390F4E71290F8E70370B6
:10087000005114C81290F4E71F70005104C804E03E
:100880001390F8E70BCE00E01390F0E71FE0139011
:10089000F6E71290F4E781E01390F4E71290F8E79E
:1008A0000470005112C81290F6E704C805E01390D6
:1008B000F8E70BCE00E01390F0E71290F6E7FFE0C8
:1008C0001390F6E71FE01390F4E71290F8E7057035
:1008D000005112C81290F0E71F70005104C800E0E8
:1008E0001390F8E709CE81E01390F0E700E0139051
:1008F000F6E71FE01390F4E71290F8E715C812909E
:10090000F4E707C801E01390F8E70CF0FAE72FFED0
:100910000BCE1FE01390F0E700E01390F6E7129083
:10092000F4E7FFE01390F4E701F0D4010000119028
:10093000FDE70BCE01F030021FE01390F0E71390BB
:02094000F6E7D8
:0E0942001390F4E701F0D40100F0B40701F0C7
:10095000300200F0F40701F0C80901F0C00200F015
:0E096000F40701F0CC0601F0420700F0F407A6
:0804B8005A0011900EF081A022
:0C04C0000EF0FAC9A50011900EF01FFE0E
:0E04F200CEF8C90011902AF0010011902CF0F4
:10050000C00011902EF0000011902FF001F00006B5
:1005100001F06E0976020B03020001F07805D202A9
:100520000B03160001F0780582A019F0F2A01DF06F
:1005300080A011F0F0A015F001F004060400119065
:100540000FF001F0B80401F030060F0001F0D20006
:10055000020001F07C07000001F0B2058F000201EB
:1005600001F0240601F0600A01F07C0201F0200392
:020570008EF209
:0401CC0001E01390AB
:0401D000F8E71FFE2F
:080B760001001190FEE71FFED3
:080BD20001001190FDE71FFE78
:04027C0080A051F21B
:1002800082A052F280A053F282A054F282A054F2D3
:1002900080A024F082A025F080A026F0000011901C
:0402A000FBE71FFE5B
:02000200DA0B17
:070080000100000000000078
:010087000078
:02000000B2E765
:02000400DC0B13
:060BDA0001CEFFCE00E099
:100BE00000E200E400E60008E0098AF0579088E897
:100BF000E879FCC10078FAC15A0CA50D119C0EF0E1
:100C000081A00EF0FBC9119D0EF0000A0CF0C80087
:100C1000AF905290FF7002C8FF7120C9AF905292FE
:100C2000AF905294AF905096AF90509780E4F0C937
:100C300001A20BC801A409C86F90029882E07F90BE
:100C4000239882E2FEE4F8C8E3CE6F90009881E03A
:100C50007F90219881E2FFE4F8C8DACE01F04202E9
:0A0C60000000119000F000F0AC0756
:020242001FFE9D
:0800C8008000F8E708000000C9
:0200D000FFFF30
:105FE000FFFFFFFFFFFFFFFFFFFFFFFFFFFFFFFFC1
:105FF000FFFFFFFFFFFFFFFFFFFFFFFFFFFFFFFFB1
:020A2E00139023
:040A300010F91FFE9C
:06045A00139012F91FFED1
:080682000000119014F91FFEA5
:0200FE0000827E
:10010000012003C980A016F902CE82A016F9208032
:1001100000011D90012003C990A016F91FFE92A0B6
:0401200016F91FFEAF
:100A5000012003C9C0A016F91FFEC2A016F91FFE8F
:10031000012003C9F0A018F91FFEF2A018F91FFE72
:0609D600139020F91FFE42
:06043800139022F91FFEE3
:080B32000000119024F91FFEE0
:0809F8000082012003C980A068
:100A000026F902CE82A026F9208000011D90012047
:0E0A100003C990A026F91FFE92A026F91FFE32
:020A1E000120B5
:0E0A200003C9C0A026F91FFEC2A026F91FFEC2
:10046000012003C9F0A028F91FFEF2A028F91FFE01
:0609D000139030F91FFE38
:06047000139032F91FFE9B
:080AC0000000119034F91FFE43
:06068A000082012003C9FB
:1006900080A036F902CE82A036F9208000011D909C
:1006A000012003C990A036F91FFE92A036F91FFE63
:0C0AE400012003C9C0A036F91FFEC2A00B
:040AF00036F91FFEB6
:10030000012003C9F0A038F91FFEF2A038F91FFE42
:06074800139060F91FFE92
:0605F400139062F91FFEE6
:0605FA00139064F91FFEDE
:06057200139066F91FFE64
:0605AA000000119070F941
:0205B0001FFE2C
:0404CC000082012089
:1004D00003C980A072F902CE82A072F920800001C7
:1004E0001D90012003C990A072F91FFE92A072F91D
:0204F0001FFEED
:0409DC00012003C92A
:0C09E000C0A072F91FFEC2A072F91FFE39
:1002F000012003C9F0A074F91FFEF2A074F91FFEDB
:060B7000C0A076F91FFE93
:060C8600D0A076F91FFE6C
:06072000E0A076F91FFEC7
:060AF40080A077F91FFE4F
:0E00D2000F7002C37FE01FFE11900BF000E0E4
:0200E0001FFE01
:04077C00017003C93C
:10078000027008C91FFE82A0E3F882A0E7F8D0A09B
:10079000E2F81FFE82A0EBF882A0EFF8D0A0EAF802
:0207A0001FFE3A
:0409EC000000119066
:0809F000E1F880A0E3F81FFE0E
:0C0A600000001190E9F880A0EBF81FFEE8
:0602EA0082A0E3F81FFEF4
:02074E00119008
:08075000E0F81191E4F81FFE2E
:0A0624001190E8F81191ECF81FFEA8
:0A0476000082012003C980A0E2F813
:1004800002CE82A0E2F820800001022000211D900F
:10049000012003C990A0E2F802CE92A0E2F82080E9
:1004A0000001042000212D90012003C9A0A0E2F842
:0804B0001FFEA2A0E2F81FFEEE
:0E05B2000082012003C980A0EAF802CE82A0D8
:1005C000EAF820800001022000211D90012003C9CB
:1005D00090A0EAF802CE92A0EAF820800001042060
:1005E00000212D90012003C9A0A0EAF81FFEA2A0BF
:0405F000EAF81FFE08
:00000001FF
